:020000040800F2
:1000000000800120992900080D2900080F29000807
:100010001129000813290008152900080000000014
:100020000000000000000000000000006120000847
:100030001729000800000000012100081929000804
:10004000E9290008E9290008E9290008E929000848
:10005000E9290008E9290008E9290008E929000838
:10006000E9290008E9290008E9290008E929000828
:10007000E9290008E9290008E9290008E929000818
:10008000E9290008E9290008E92900080000000022
:10009000000000000000000000000000E929000846
:1000A000E9290008E9290008E9290008E9290008E8
:1000B000E9290008E9290008E9290008E9290008D8
:1000C000E9290008E9290008E9290008E9290008C8
:1000D000E929000825290008E92900080000000096
:1000E00035290008E9290008E92900080000000076
:1000F000000000000000000000000000E9290008E6
:1001000000000000E9290008E9290008E9290008A1
:1001100000000000000000000000000000000000DF
:10012000E9290008E9290008E9290008E929000867
:10013000E9290008000000000000000000000000A5
:10014000000000000000000000000000E929000895
:10015000E9290008E9290008E9290008E929000837
:10016000E9290008E929000800000000000000005B
:10017000000000000000000000000000000000007F
:1001800000000000E9290008000000000000000055
:04019000E929000851
:1001A00010B5054C237833B9044B13B10448AFF3B1
:1001B00000800123237010BD10000020000000000B
:1001C000442A000808B5034B1BB103490348AFF3A9
:1001D000008008BD0000000014000020442A000830
:1001E00053B94AB9002908BF00281CBF4FF0FF319E
:1001F0004FF0FF3000F072B9ADF1080C6DE904CE9C
:1002000000F006F8DDF804E0DDE9022304B07047F1
:100210002DE9F047089E04468846002B4BD18A42C0
:10022000154667D9B2FA82F24AB1C2F1200701FA43
:1002300002F320FA07F7954047EA030894404FEA93
:10024000154E230CB8FBFEF71FFA85FC0EFB178832
:1002500043EA084307FB0CF1994209D9EB1807F16F
:10026000FF3080F01B81994240F21881023F2B44FD
:100270005B1AA4B2B3FBFEF00EFB103344EA034456
:1002800000FB0CFCA44509D92C1900F1FF3380F0C8
:100290000781A44540F2048102382C4440EA07401B
:1002A000A4EB0C0400271EB1D4400023C6E9004390
:1002B0003946BDE8F0878B4209D9002E00F0EB806B
:1002C0000027C6E9000138463946BDE8F087B3FA91
:1002D00083F7002F47D18B4202D3824200F2FA808B
:1002E000841A61EB030301209846002EE0D0C6E992
:1002F0000048DDE702B9FFDEB2FA82F2002A40F0E0
:100300008F80491B4FEA154E1FFA85F80127B1FB74
:10031000FEFC230C0EFB1C1143EA014308FB0CF10D
:10032000994207D9EB180CF1FF3002D2994200F242
:10033000CD808446591AA3B2B1FBFEF00EFB101417
:1003400043EA044408FB00F8A04507D92C1900F142
:10035000FF3302D2A04500F2B6801846A4EB080491
:1003600040EA0C409FE7C7F1200CBB4022FA0CFE8C
:100370004EEA030E01FA07F420FA0CF521FA0CF309
:100380004FEA1E482543B3FBF8F92C0C08FB193340
:100390001FFA8EFA44EA034309FB0AF49C4202FA6C
:1003A00007F200FA07F10BD91EEB030309F1FF3046
:1003B00080F087809C4240F28480A9F10209734456
:1003C0001B1BADB2B3FBF8F008FB103345EA034446
:1003D00000FB0AFAA24508D91EEB040400F1FF3322
:1003E0006BD2A24569D90238744440EA0940A0FBA7
:1003F0000289A4EB0A044C45C2464B4654D351D063
:10040000002E69D0B1EB0A0564EB030404FA0CFC7E
:10041000FD40FC404CEA0505C6E90054002747E7CB
:10042000C2F1200320FA03F7954001FA02F021FA05
:1004300003F34FEA154E3843010CB3FBFEF71FFAE6
:1004400085F80EFB173341EA034107FB08F38B42A3
:1004500004FA02F407D9691807F1FF3C2FD28B4246
:100460002DD9023F2944CB1A81B2B3FBFEF00EFB1B
:10047000103341EA034100FB08F38B4207D96918A6
:1004800000F1FF3C17D28B4215D902382944C91A12
:1004900040EA07473BE73746304609E70746E7E6C5
:1004A0001846FBE64145ABD2B8EB020A69EB0E02F7
:1004B00001381346A4E76046E9E7184695E7674622
:1004C000D1E781467CE702382C4447E7ACF1020CC7
:1004D0002B442FE7384608E73746E9E6704700BF68
:1004E00010B504460E4B18784FF47A73B3FBF0F353
:1004F0000C4A1068B0FBF3F000F096F868B90F2CC6
:1005000001D901200AE0002221464FF0FF3000F01F
:1005100049F8034B5C60002000E0012010BD00BFE3
:10052000000000200C00002008B50B4B1A6842F4B4
:1005300000721A601A6842F480621A601A6842F403
:1005400080721A60032000F01BF80F20FFF7C8FF2D
:1005500002F00CF9002008BD003C0240034A11687B
:10056000034B1B780B441360704700BF783D00209D
:1005700000000020014B1868704700BF783D002044
:10058000074AD36823F4E0631B041B0C000200F449
:10059000E060184340F0BF6040F40030D060704726
:1005A00000ED00E030B4174BDB68C3F30223C3F166
:1005B0000704042C28BF04241D1D062D18D9033B55
:1005C0004FF0FF3505FA04F421EA0401994005FAD9
:1005D00003F322EA0303194300280BDB0901C9B224
:1005E00000F1604000F5614080F8001330BC7047B6
:1005F0000023E5E700F00F000901C9B2024B1954CE
:10060000F4E700BF00ED00E014ED00E0002807DB98
:1006100000F01F02400901239340024A42F82030B3
:10062000704700BF00E100E00138B0F1807F0AD2DE
:10063000064B5860064AF02182F82310002098608B
:1006400007221A6070470120704700BF10E000E0E9
:1006500000ED00E090F83530DBB2022B03D08023B0
:10066000436501207047052380F835300268136820
:1006700023F00103136000207047000000230F2BBC
:1006800000F2C580F0B482B039E0042200E000221C
:10069000B2403A4302345E4E46F824205D4A146864
:1006A000EA4302EA04064F6817F4803F01D045EAA6
:1006B0000406584C2660646802EA04064F6817F482
:1006C000003F01D045EA0406524C6660A46802EA85
:1006D00004064F6817F4801F01D045EA04064D4C0C
:1006E000A660E46822404E6816F4001F01D045EA77
:1006F0000402484CE26001330F2B00F28580012296
:100700009A400C6804EA0205AA42F4D14C68022C13
:1007100001D0122C10D1DE08083650F826C003F0A4
:100720000704A7000F24BC402CEA040C0C69BC4051
:1007300044EA0C0440F8264004685F000326BE40EB
:10074000F64306EA040C4C6804F00304BC4044EA97
:100750000C0404604C6804F1FF3CBCF1010F03D9A8
:10076000112C01D0122C10D1846806EA040CCC683C
:10077000BC4044EA0C048460446824EA02024C68E9
:10078000C4F300149C4014434460C26816408A6855
:10079000BA403243C2604A6812F0805FABD0002298
:1007A00001921D4A546C44F480445464526C02F427
:1007B00080420192019A9C08A61C154A52F82670A4
:1007C00003F0030296000F22B24027EA0207134A01
:1007D00090423FF45CAF02F5806290420ED002F589
:1007E000806290420CD002F5806290420AD002F5FD
:1007F000806290423FF449AF072249E7012247E770
:10080000022245E7032243E702B0F0BC704770477D
:1008100000380140003C0140003802400000024026
:1008200012B909048161704781617047436931EAF7
:10083000030301D0816170470904816170477047EB
:1008400008B5054B5B69034200D108BD024B5861F6
:10085000FFF7F5FFF9E700BF003C0140002800F07A
:10086000BB8170B582B00446036813F0010F3BD022
:10087000A74B9B6803F00C03042B2CD0A44B9B6864
:1008800003F00C03082B21D06368B3F5803F4FD0F1
:10089000B3F5A02F52D09E4B1A6822F480321A6012
:1008A0001A6822F480221A606368002B50D0FFF788
:1008B00061FE0546964B1B6813F4003F14D1FFF709
:1008C00059FE401B6428F5D903208AE1904B5B68F0
:1008D00013F4800FD8D08E4B1B6813F4003F03D065
:1008E0006368002B00F07A81236813F0020F55D063
:1008F000874B9B6813F00C0F3ED0854B9B6803F031
:100900000C03082B33D0E368002B68D0814B012205
:100910001A60FFF72FFE05467D4B1B6813F0020F90
:1009200054D1FFF727FE401B0228F5D9032058E1D8
:10093000774A136843F480331360B5E7744B1A6841
:1009400042F480221A601A6842F480321A60ABE7DF
:10095000FFF710FE05466E4B1B6813F4003FC3D033
:10096000FFF708FE401B6428F5D9032039E1684BE6
:100970005B6813F4800FC6D1654B1B6813F0020F40
:1009800004D0E368012B01D001202AE1604A1368FA
:1009900023F0F803216943EAC1031360236813F0CD
:1009A000080F40D0636963B35B4B01221A60FFF705
:1009B000E1FD0546564B5B6F13F0020F33D1FFF795
:1009C000D9FD401B0228F5D903200AE1504A1368DB
:1009D00023F0F803216943EAC1031360DEE74D4BBE
:1009E00000221A60FFF7C6FD0546494B1B6813F04D
:1009F000020FD3D0FFF7BEFD401B0228F5D903201C
:100A0000EFE0454B00221A60FFF7B4FD0546404B6E
:100A10005B6F13F0020F06D0FFF7ACFD401B0228FE
:100A2000F5D90320DDE0236813F0040F79D0384BAB
:100A30001B6C13F0805F33D100230193344B1A6C8D
:100A400042F080521A641B6C03F080530193019BA7
:100A50000125324B1B6813F4807F23D0A368012B40
:100A600034D0052B38D02A4B1A6F22F001021A67B6
:100A70001A6F22F004021A67A368002B36D0FFF722
:100A800079FD0646224B1B6F13F0020F48D1FFF78A
:100A900071FD801B41F288339842F3D90320A0E016
:100AA0000025D6E71D4A136843F480731360FFF7EF
:100AB00061FD0646194B1B6813F4807FCED1FFF70A
:100AC00059FD801B0228F5D903208AE0104A136FD4
:100AD00043F001031367CFE70D4B1A6F42F0040296
:100AE0001A671A6F42F001021A67C5E7FFF742FD65
:100AF0000646074B1B6F13F0020F11D0FFF73AFDAC
:100B0000801B41F288339842F3D9032069E000BF8B
:100B10000038024000004742800E4742007000400B
:100B2000E5B9A369002B5BD0304A926802F00C0251
:100B3000082A58D0022B17D02D4B00221A60FFF73D
:100B400019FD0446294B1B6813F0007F42D0FFF7C4
:100B500011FD001B0228F5D9032042E0234A136C43
:100B600023F080531364DCE7214B00221A60FFF767
:100B700001FD05461D4B1B6813F0007F06D0FFF7F3
:100B8000F9FC401B0228F5D903202AE0E369226A18
:100B90001343626A43EA8213A26A5208013A43EAA3
:100BA0000243E26A43EA0263104A5360104B012297
:100BB0001A60FFF7DFFC04460C4B1B6813F0007F44
:100BC00006D1FFF7D7FC001B0228F5D9032008E067
:100BD000002006E0002004E001207047012000E032
:100BE000002002B070BD0120FBE700BF00380240CA
:100BF00060004742324B9B6803F00C03042B5CD02F
:100C0000082B01D02F4870472DE9F04B2C4B5A6828
:100C100002F03F025B6813F4800F2BD0284B5B6817
:100C2000C3F388131E4600275C010025E41A65EB18
:100C30000705A90141EA9461A001001B61EB0501D0
:100C4000CB0043EA5073C400A01943EB07014B02E9
:100C500043EAD0534402204619460023FFF7C0FA66
:100C6000174B5B68C3F3014301335B00B0FBF3F048
:100C7000BDE8F08B124B5B68C3F388131E46002758
:100C80005C010025E41A65EB0705A90141EA9461BE
:100C9000A001001B61EB0501CB0043EA5073C400C7
:100CA000A01943EB07018B0243EA905384022046CC
:100CB00019460023FFF794FAD2E70348704700BFB4
:100CC000003802400024F40000127A00002800F0EE
:100CD0009D8070B504464F4B1B6803F00F038B4299
:100CE00009D2CBB24B4A1370136803F00F038B4247
:100CF00001D0012070BD236813F0020F17D013F04C
:100D0000040F04D0444A936843F4E053936023688B
:100D100013F0080F04D0404A936843F46043936093
:100D20003D4A936823F0F003A068034393600D46A7
:100D3000236813F0010F32D06368012B21D09A1E73
:100D4000012A25D9344A126812F0020F60D03249C4
:100D50008A6822F0030213438B60FFF70BFC064600
:100D60002D4B9B6803F00C036268B3EB820F16D027
:100D7000FFF700FC801B41F288339842F0D9032032
:100D8000B8E7254A126812F4003FE0D10120B1E72C
:100D9000214A126812F0007FD9D10120AAE71D4B29
:100DA0001B6803F00F03AB4209D9EAB2194B1A7062
:100DB0001B6803F00F03AB4201D001209AE72368C0
:100DC00013F0040F06D0144A936823F4E053E1684B
:100DD0000B439360236813F0080F07D00E4A936803
:100DE00023F46043216943EAC1039360FFF702FFE4
:100DF000094B9B68C3F30313084AD35CD840084BE4
:100E000018600F20FFF76CFB002073E7012070478C
:100E100001206FE7003C024000380240702A0008C1
:100E20000C000020014B1868704700BF0C00002028
:100E300008B5FFF7F7FF044B9B68C3F38223034A0F
:100E4000D35CD84008BD00BF00380240802A0008AB
:100E500008B5FFF7E7FF044B9B68C3F34233034A2F
:100E6000D35CD84008BD00BF00380240802A00088B
:100E700070B4036A23F001030362036A4268846961
:100E800024F073040D6845EA040623F002048B681D
:100E900023430D4DA84209D00B4DA8420DD042600E
:100EA00086614A684263036270BC704723F008039E
:100EB000CC68234323F00403EEE722F440724C692C
:100EC00014438A692243EAE70000014030B4036A10
:100ED00023F480730362036A4268C46924F07304D4
:100EE0000D682C4323F400738D6843EA05230F4DEE
:100EF000A84209D00D4DA8420ED04260C4614A6894
:100F0000C263036230BC704723F40063CD6843EAD8
:100F1000052323F48063EDE722F440524D6942EA51
:100F200005128D6942EA0512E7E700BF00000140A3
:100F300030B4036A23F480530362036A4468C269CD
:100F400022F4E6420D6842EA052223F400538D683C
:100F500043EA0533074DA84206D04460C2614A689F
:100F60000264036230BC704724F480444D6944EA53
:100F70008514F2E7000001400368254A90420ED034
:100F8000B0F1804F0BD0A2F57C42904207D002F521
:100F90008062904203D002F58062904203D123F038
:100FA00070034A6813431A4A90421AD0B0F1804F36
:100FB00017D0A2F57C42904213D002F58062904295
:100FC0000FD002F5806290420BD002F59A32904227
:100FD00007D002F58062904203D002F58062904211
:100FE00003D123F44073CA68134323F080034A6992
:100FF000134303608B68C3620B688362044B98429F
:1010000002D00123436170470B690363F9E700BF16
:1010100000000140A8B110B5044690F83D305BB126
:10102000022384F83D30211D2068FFF7A5FF01232E
:1010300084F83D30002010BD80F83C3001F0B8FB52
:10104000EEE701207047000030B4036A23F010037C
:101050000362036A4468826922F4E6420D6842EA48
:10106000052223F020038D6843EA05130E4DA842A4
:1010700009D00D4DA8420ED0446082614A68826357
:10108000036230BC704723F08003CD6843EA051348
:1010900023F04003EDE724F440644D6944EA8504FD
:1010A0008D6944EA8504E7E70000014038B590F80F
:1010B0003C30012B66D00D460446012380F83C30BD
:1010C000022380F83D300C2A1AD8DFE802F0071915
:1010D0001919201919193419191947000068FFF74F
:1010E000C7FE2268936943F00803936122689369FD
:1010F00023F0040393612268936929690B43936188
:10110000012384F83D30002084F83C0038BD00689D
:10111000FFF79AFF2268936943F4006393612268A2
:10112000936923F48063936122689369296943EA90
:1011300001239361E4E70068FFF7C8FE2268D369E2
:1011400043F00803D3612268D36923F00403D36119
:101150002268D36929690B43D361D1E70068FFF79F
:10116000E7FE2268D36943F40063D3612268D36940
:1011700023F48063D3612268D369296943EA012398
:10118000D361BDE70220C1E790F83C30012B1CD0B1
:1011900070B4012680F83C60022380F83D3002687C
:1011A0005568936825F070050C682C4323F0800582
:1011B0004B682B4354600268936080F83D600023C5
:1011C00080F83C30184670BC70470220704790F899
:1011D0003C30012B22D0012380F83C30CB6823F433
:1011E00040738A68134323F480634A68134323F4EB
:1011F00000630A68134323F480530A69134323F4FA
:1012000000534A69134323F48043CA6913430268B5
:101210005364002380F83C30184670470220704722
:101220000268D36823F49073D3600268536923F093
:1012300001035361202380F83A30704790F8393029
:10124000DBB2212B2AD18368B3F5805F16D0036A05
:101250005A1C02621A7803685A60C38C013B9BB225
:10126000C384EBB90268D36823F08003D3600268BB
:10127000D36843F04003D36000207047036A1B88A3
:101280000268C3F30803536003691BB9036A02339E
:101290000362E2E7036A01330362DEE7022070477C
:1012A000002070472DE9F84304460268136923F4CF
:1012B0004053C1680B431361836802691343426959
:1012C0001343C2691A430168CB6823F4164323F021
:1012D0000C031343CB600268536923F440738169A4
:1012E0000B435361C369B3F5004F60D00368B84A3C
:1012F000934200F0148102F58062934200F00F8166
:10130000FFF796FD00EB800000EB80006568AD0004
:10131000B0FBF5F5AF4FA7FB05356D092E01FFF7C3
:1013200087FD00EB800000EB80006568AD00B0FB3E
:10133000F5F9FFF77DFD00EB800000EB80006568AC
:10134000AD00B0FBF5F5A7FB05356D094FF064085E
:1013500008FB15952D013235A7FB05356D0905F004
:10136000F0053544FFF764FD00EB800000EB8000E2
:101370006668B600B0FBF6F6FFF75AFD00EB80009A
:1013800000EB800063689B00B0FBF3F0A7FB00302C
:10139000400908FB10684FEA081808F13208A7FB5B
:1013A0000837C7F3431723682F449F600DE1036894
:1013B000874A93425BD002F58062934257D0FFF791
:1013C00037FD00EB800000EB800065686D00B0FB2E
:1013D000F5F5804FA7FB05356D092E01FFF728FDB8
:1013E00000EB800000EB800065686D00B0FBF5F954
:1013F000FFF71EFD00EB800000EB800065686D00CC
:10140000B0FBF5F5A7FB05356D094FF0640808FB47
:101410001595ED003235A7FB05356D096D0005F416
:10142000F8753544FFF704FD00EB800000EB800009
:1014300066687600B0FBF6F6FFF7FAFC00EB80007A
:1014400000EB800063685B00B0FBF3F3A7FB0323B2
:101450005B0908FB13684FEAC80808F13208A7FBCC
:101460000837C7F3421723682F449F60ADE0FFF7AA
:10147000EFFC00EB800000EB800065686D00B0FBC6
:10148000F5F5544FA7FB05356D092E01FFF7E0FC7C
:1014900000EB800000EB800065686D00B0FBF5F9A3
:1014A000FFF7D6FC00EB800000EB800065686D0064
:1014B000B0FBF5F5A7FB05356D094FF0640808FB97
:1014C0001595ED003235A7FB05356D096D0005F466
:1014D000F8753544FFF7BCFC00EB800000EB8000A2
:1014E00066687600B0FBF6F6FFF7B2FC00EB800012
:1014F00000EB800063685B00B0FBF3F3A7FB032302
:101500005B0908FB13684FEAC80808F13208A7FB1B
:101510000837C7F3421723682F449F6055E0FFF751
:1015200097FC00EB800000EB80006568AD00B0FB2D
:10153000F5F5284FA7FB05356D092E01FFF788FC4F
:1015400000EB800000EB80006568AD00B0FBF5F9B2
:10155000FFF77EFC00EB800000EB80006568AD00CB
:10156000B0FBF5F5A7FB05356D094FF0640808FBE6
:1015700015952D013235A7FB05356D0905F0F005F0
:101580003544FFF765FC00EB800000EB80006668E7
:10159000B600B0FBF6F6FFF75BFC00EB800000EB5B
:1015A000800063689B00B0FBF3F0A7FB00304009AC
:1015B00008FB10684FEA081808F13208A7FB083743
:1015C000C7F3431723682F449F60BDE8F88300BF2B
:1015D000001001401F85EB5158B310B5044690F838
:1015E00039300BB3242384F839302268D36823F4CC
:1015F0000053D3602046FFF755FE2268136923F499
:10160000904313612268536923F02A0353612268CF
:10161000D36843F40053D3600020E063202384F8B0
:10162000393084F83A3010BD80F8383001F006F9CE
:10163000D8E701207047704708B50168CB6823F0F0
:101640004003CB60202380F83930FFF7F4FF0020FF
:1016500008BD704708B590F83A30DBB2222B45D16F
:101660008368B3F5805F0ED0036903BB03685A68D3
:10167000836A591C81621A70C38D013B9BB2C3857A
:10168000F3B1002033E0826A036943B903685B6801
:10169000C3F308031380836A02338362ECE70368B1
:1016A0005B68DBB21380836A01338362E4E703681B
:1016B0005B68826A511C816203F07F031370DBE771
:1016C0000268D36823F02003D3600268D36823F450
:1016D0008073D3600268536923F0010353612023B0
:1016E00080F83A30FFF7B5FF002000E0022008BD87
:1016F0007047000010B5044602681368D16852694B
:1017000013F00F0005D113F0200F02D011F0200FBD
:1017100053D1002867D012F0010202D111F4907F5A
:1017200061D013F0010F06D011F4807F03D0E06B7D
:1017300040F00100E06313F0040F04D01AB1E06B35
:1017400040F00200E06313F0020F04D01AB1E06B26
:1017500040F00400E06313F0080F04D01AB1E26B0C
:1017600042F00802E263E26B002A48D013F0200F37
:1017700002D011F0200F24D123685B6903F04003ED
:10178000E26B12F0080F00D13BB32046FFF748FD93
:1017900023685A6912F0400F1BD05A6922F04002A8
:1017A0005A61636B8BB11A4A1A65606BFEF752FF80
:1017B00028B3606B036D984721E02046FFF74AFF8E
:1017C0001DE02046FFF746FFD6E72046FFF790FFD3
:1017D00015E02046FFF78CFF11E02046FFF788FF59
:1017E0000023E3630BE013F0800F02D011F0800FB1
:1017F00006D113F0400F02D011F0400F04D110BDFC
:101800002046FFF71BFDFAE72046FFF715FFF6E736
:101810001518000808B5806B0023C385C384FFF743
:1018200067FF08BD842801D003307047002070474F
:1018300008B500F0FFF9002008BDF0B585B00F46EF
:10184000446805680669B0F90800FFF7EBFF03ABD1
:10185000019300903B46B2B22946204600F0B8F909
:10186000012802D1039805B0F0BD0020FBE708B5C0
:10187000034600B90123184600F01EFB002008BDF6
:1018800008B500F087FB012801D000F06BFC08BD13
:1018900000F1080343604FF0FF328260C3600361D0
:1018A00000230360704700230361704743684B6067
:1018B0009A688A609A685160996008610368013388
:1018C0000360704730B40D68B5F1FF3F02D000F1FE
:1018D000080202E0026904E01A4653681C68AC4240
:1018E000FAD953684B6099608A6051600861036857
:1018F0000133036030BC70470369426881689160BE
:101900008268416851605A68824206D000220261B2
:101910001A68013A1A601868704782685A60F5E7D9
:10192000074B9B6A1B6833B1054B9A6AD268D26831
:101930005268DA627047024B4FF0FF32DA6270474A
:101940002C00002010B50446006B00F08BFD2046F3
:1019500000F088FD10BD2DE9F04780469946089DAE
:10196000099F0A9C266B02F18042013A06EB82062F
:1019700026F0070600230F2B07D8C85CE21882F870
:101980003400CA5C0AB10133F5E7002384F8433020
:10199000062D00D90625E56265644FF0000AC4F8FB
:1019A00048A0201DFFF77FFF04F11800FFF77BFF21
:1019B0002461C5F10705A5616462C4F84CA084F8F0
:1019C00050A04A464146304600F032FB206007B145
:1019D0003C60BDE8F087000070B5002407E004EB30
:1019E0008402930010481844FFF752FF0134062C7C
:1019F000F5D90E4C04F1BC063046FFF749FF04F15F
:101A0000D0052846FFF744FF04F11400FFF740FF1C
:101A100004F1E400FFF73CFF2046FFF739FFA66220
:101A2000C4F8F85070BD00BF5C0000202C000020FE
:101A300038B5054600F026FB264BD3F8FC200132D2
:101A4000C3F8FC20D3F8003173B1224BD3F8043132
:101A50008BB9204BD3F80031DA6AEB6A9A420AD884
:101A60001C4BC3F8005106E01A4BC3F80051D3F8E1
:101A7000FC30012B2AD0174CD4F808310133C4F8BC
:101A80000831EB6A01229A40D4F80C110A43C4F8D9
:101A90000C2104F1300003EB83039A00291D10444C
:101AA000FFF704FF00F010FBD4F804316BB1D4F859
:101AB0000031DA6AEB6A9A4207D2074B4FF0805244
:101AC0001A60BFF34F8FBFF36F8F38BDFFF784FFEE
:101AD000D1E700BF2C00002004ED00E038B517E08E
:101AE00000F0D0FA0D4CD4F8F030DD68281DFFF777
:101AF00003FFD4F8FC30013BC4F8FC30D4F81031BB
:101B0000013BC4F8103100F0DFFA2846FFF71AFF56
:101B1000024BD3F81031002BE2D138BD2C0000204D
:101B200008B5FFF7DBFF064B1B6B012BF9D9054B03
:101B30004FF080521A60BFF34F8FBFF36F8FF0E703
:101B40002C00002004ED00E070B504460E461F4B4B
:101B5000D3F81451D3F800010430FFF7CDFE60B97B
:101B60001A4BD3F80021D16A012202FA01F1D3F80D
:101B70000C2122EA0102C3F80C21B4F1FF3F12D07C
:101B80002C44124BD3F800315C60A54214D80F4DA1
:101B9000A86AD5F800110431FFF794FEEB6AA3425E
:101BA00012D9EC6210E0002EEAD00848D0F80011FB
:101BB0000431FFF77BFE07E0044BD3F8F800D3F8BD
:101BC00000110431FFF77EFE70BD00BF2C00002025
:101BD0002DE9F04385B007468846154699469000A2
:101BE00000F0C6FBF8B10646542000F0C1FB0446E5
:101BF000A8B10663D4B10023039302940D9B019313
:101C00000C9B00934B462A4641463846FFF7A3FEFD
:101C10002046FFF70DFF012005B0BDE8F0833046F8
:101C200000F020FCE6E74FF0FF30F5E74FF0FF3023
:101C3000F2E7000000B583B0174B01930023009337
:101C4000802216491648FFF7C3FF012805D0B0F1DE
:101C5000FF3F17D003B05DF804FB4FF0500383F350
:101C60001188BFF36F8FBFF34F8F0E4B4FF0FF32D2
:101C7000DA620122C3F804210022C3F8142100F023
:101C8000A3FAE7E74FF0500383F31188BFF36F8F98
:101C9000BFF34F8FFEE700BF48010020882A0008ED
:101CA000211B00082C000020034AD2F81831013310
:101CB000C2F81831704700BF2C0000202DE9F04118
:101CC000404BD3F81831002B6CD13E4BD3F8145154
:101CD0000135C3F81451CDB99B6A1B6843B14FF06D
:101CE000500383F31188BFF36F8FBFF34F8FFEE76D
:101CF000344B9A6AD3F8F8109962C3F8F820D3F8F5
:101D000020210132C3F82021FFF70AFE2D4BDB6AA8
:101D1000AB423DD900242B4AD2F80031DB6A03EBF9
:101D2000830399000A44136B012B42D9012440E03C
:101D30000124244B9B6A1B6863B3224B9B6ADB68BC
:101D4000DE6873689D422AD306F104084046FFF717
:101D5000D3FDB36A1BB106F11800FFF7CDFDF36A9E
:101D600001229A40174FD7F80C110A43C7F80C21EB
:101D700007F1300003EB83039A0041461044FFF75C
:101D800095FDF26AD7F80031DB6A9A42D0D2D0E7EB
:101D90000024CEE70B4B4FF0FF32DA62BBE7094A73
:101DA000D362B8E7074AD2F824310133C2F82431AC
:101DB0000024044BD3F8283103B101242046BDE8A8
:101DC000F08100BF2C000020394BD3F8183143B903
:101DD0004FF0500383F31188BFF36F8FBFF34F8F22
:101DE000FEE770B500F04EF9314BD3F81821013AF7
:101DF000C3F81821D3F81831002B54D12C4BD3F849
:101E0000FC3023B9002400F05FF9204670BD0024A7
:101E1000274B5B692BB3264D2B6ADC6804F1180055
:101E2000FFF76AFD261D3046FFF766FDE36A0122D3
:101E30009A40D5F80C110A43C5F80C2105F1300081
:101E400003EB83039A0031461044FFF72FFDE26A4B
:101E5000D5F80031DB6A9A42DAD30122C5F828218D
:101E6000D6E70CB1FFF75CFD114BD3F8244164B108
:101E7000FFF724FF18B10E4B0122C3F82821013CC3
:101E8000F6D10B4B0022C3F82421094BD3F828319B
:101E90005BB1084B4FF080521A60BFF34F8FBFF316
:101EA0006F8F0124AFE70024ADE70024ABE700BF4C
:101EB0002C00002004ED00E010B5B0B104460F4B3B
:101EC000D3F8183143B14FF0500383F31188BFF3B7
:101ED0006F8FBFF34F8FFEE7FFF7E6FE002120462E
:101EE000FFF732FEFFF770FF38B9054B4FF0805215
:101EF0001A60BFF34F8FBFF36F8F10BD2C0000200F
:101F000004ED00E0224BD3F8183123B1204B01221D
:101F1000C3F8282170471E4A0023C2F82831D2F89E
:101F20000C31B3FA83F3DBB2C3F11F0303EB83007D
:101F300081000A44126B42B94FF0500383F31188B9
:101F4000BFF36F8FBFF34F8FFEE710B4104A9900B5
:101F5000CC18A0001044446B6468446330321944C8
:101F600088000830024494420BD0094903EB8303F4
:101F70009A000A44536BDB68C1F800315DF8044BEA
:101F8000704761680248142202FB03025163ECE7C8
:101F90002C000020064BD3F804313BB1044BD3F89E
:101FA00018310BB1002070470220704701207047A4
:101FB0002C00002082B0002301930D4B1B68B3F16D
:101FC000FF3F08D04FF0500383F31188BFF36F8FAA
:101FD000BFF34F8FFEE74FF0500383F31188BFF339
:101FE0006F8FBFF34F8F019B002BFCD002B0704767
:101FF0000800002008480068006880F308884FF057
:10200000000080F3148862B661B6BFF34F8FBFF350
:102010006F8F00DF00BF000008ED00E0DFF80C006C
:10202000016841F4700101607047000088ED00E034
:102030004FF0807340F8043C21F0010140F8081C87
:10204000054B40F80C3C40F8202C6FF0020340F8A0
:10205000243C4438704700BFB51F00080000000052
:10206000074B19680868B0E8F04F80F30988BFF3A0
:102070006F8F4FF0000080F311887047AFF300803E
:102080002C0100204FF0500383F31188BFF36F8FB2
:10209000BFF34F8F0A4A136801331360012B00D03E
:1020A0007047084B1B6813F0FF0FF9D04FF0500337
:1020B00083F31188BFF36F8FBFF34F8FFEE700BF2D
:1020C0000800002004ED00E0094B1B6843B94FF005
:1020D000500383F31188BFF36F8FBFF34F8FFEE779
:1020E000013B034A13600BB983F31188704700BFAB
:1020F00008000020000000000000000000000000B8
:10210000EFF30980BFF36F8F154B1A681EF0100FA5
:1021100008BF20ED108A20E9F04F10602DE909007A
:102120004FF0500080F31188BFF34F8FBFF36F8FD4
:10213000FFF7E8FE4FF0000080F3118809BC196832
:102140000868B0E8F04F1EF0100F08BFB0EC108A1E
:1021500080F30988BFF36F8F704700BFAFF3008033
:102160002C01002008B54FF0500383F31188BFF312
:102170006F8FBFF34F8FFFF7A1FD18B1034B4FF0E7
:1021800080521A60002383F3118808BD04ED00E03B
:10219000084A0023136008490B60084B1B68084974
:1021A000A1FB03139B09013B06490B600723136046
:1021B000704700BF10E000E018E000E00C000020D5
:1021C000D34D621014E000E0394B1A68394B9A4243
:1021D0000DD0374B1A68384B9A4211D14FF050034B
:1021E00083F31188BFF36F8FBFF34F8FFEE74FF07C
:1021F000500383F31188BFF36F8FBFF34F8FFEE758
:1022000010B582B02D4B1A78D2B20192FF221A700B
:102210001B78DBB28DF803309DF8033003F05003D8
:10222000274A13700723536009E0254A5368013B8E
:1022300053609DF803305B00DBB28DF803309DF8EE
:10224000033013F0800FF0D11D4B5B68032B08D0D7
:102250004FF0500383F31188BFF36F8FBFF34F8F9D
:10226000FEE71B0203F4E063154A5360019BDBB2F7
:10227000124A1370134B1A6842F470021A601A68FB
:1022800042F070421A60FFF783FF00240E4B1C607F
:10229000FFF7C4FE0D4A136843F040431360FFF795
:1022A000A9FEFFF72FFEFFF785FE204602B010BD06
:1022B00000ED00E071C20F4170C20F4100E400E088
:1022C0005801002020ED00E00800002034EF00E07D
:1022D000104A12F0070F1AD0D11D21F00701C1F5E5
:1022E000705313440A460C490A60002048601344A6
:1022F000083B23F007038B6058601860981A506001
:102300001360C86008614FF000434B6170474FF4A1
:102310007053E8E7780100206001002010B4134BEF
:102320001A6882421BD359685C18844203D1406802
:1023300001445960184641684418A24213D10B4C1D
:10234000A468A2420DD05268114441601A68126814
:102350000260984200D018605DF8044B7047134645
:10236000DEE70460F5E70260F3E700BF60010020EC
:1023700070B50446FFF798FC394B9B68BBB1384BEE
:102380005B691C4262D1ACB1083414F0070F11D064
:1023900024F00704083404F007035BB14FF0500346
:1023A00083F31188BFF36F8FBFF34F8FFEE7FFF703
:1023B0008FFFE4E7002C4BD0294B1B69A34249D384
:1023C000274B1D6801E02B4615466A68A24202D2DF
:1023D0002A68002AF7D1224A9268AA423CD01E6895
:1023E00008362A681A606B681B1B102B10D9281935
:1023F00010F0070F08D04FF0500383F31188BFF39C
:102400006F8FBFF34F8FFEE743606C60FFF786FF6F
:102410006968134A13695B1A1361D268934201D247
:102420000F4AD3600E4B5B690B436B6000232B603C
:10243000FFF7CAFC16F0070F10D04FF0500383F3DC
:102440001188BFF36F8FBFF34F8FFEE70026EFE7D2
:102450000026EDE70026EBE70026E9E7304670BDF1
:102460006001002080B338B50446A0F1080550F89B
:10247000042C164949690A4208D14FF0500383F3EE
:102480001188BFF36F8FBFF34F8FFEE750F8080C32
:1024900040B14FF0500383F31188BFF36F8FBFF348
:1024A0004F8FFEE722EA010244F8042CFFF7FCFB01
:1024B00054F8041C054A13690B4413612846FFF7BE
:1024C0002DFFFFF781FC38BD704700BF6001002081
:1024D00030B58BB0002405940694079408940994B1
:1024E00001942A4B1A6B42F004021A631A6B02F031
:1024F00004020192019A02941A6B42F080021A635C
:102500001A6B02F080020292029A03941A6B42F054
:1025100001021A631A6B02F001020392039A0494F7
:102520001A6B42F002021A631B6B03F0020304935E
:10253000049B174D224620212846FEF771F94FF4DF
:1025400000530593134B0693079405A91248FEF711
:1025500095F820230593012306930794089405A971
:102560002846FEF78BF84FF48053059306940794A2
:1025700005A92846FEF782F8224605212820FEF705
:1025800011F82820FEF742F80BB030BD00380240A9
:1025900000000240000011100008024030B593B066
:1025A00000241094119409940A940B940C940D94A3
:1025B0000E940F942022214601A800F03BFA1A4DF8
:1025C0001A4B2B6053236B60AC6044F62063EB60C6
:1025D0002C616C61AC612846FEF71CFD10941194CF
:1025E00010A92846FEF7D0FD602309930A940B94A6
:1025F0000C940D940E940F94224609A92846FEF7D8
:1026000055FD019402940394049405944FF40053EF
:102610000693089401A92846FEF7D9FD284600F044
:10262000DFF813B030BD00BFC43D00200000014002
:1026300008B50848084B03604FF4E13343600023BA
:102640008360C36003610C2242618361C361FEF752
:10265000C3FF08BD043E00200044004008B5084800
:10266000084B03604FF41653436000238360C3603C
:1026700003610C2242618361C361FEF7ADFF08BDB7
:10268000803D00200010014008B540F6B830FFF74B
:10269000EEF8FAE730B595B03022002108A800F036
:1026A000C9F90024039404940594069407940194B2
:1026B0001B4B1A6C42F080521A641B6C03F080535F
:1026C0000193019B0294174A136823F4404343F497
:1026D00000431360136803F440430293029B0225F6
:1026E000089501230B9310230C930E950F941093D0
:1026F0004FF4A8731193042312930723139308A88C
:10270000FEF7ACF80F230393049505944FF4805320
:1027100006930794294603A8FEF7D8FA15B030BDF2
:10272000003802400070004000B587B0FDF7FCFEA5
:10273000FFF7B0FFFFF7CCFEFFF730FFFFF778FFA2
:10274000FFF78CFF01AC074D0FCD0FC42B68236042
:10275000002101A8FFF771F8034B1860FFF768F834
:10276000FEE700BF5C2A00087C3D002000B583B076
:10277000002200920D4B596C41F480415964596C10
:1027800001F48041009100990192196C41F080514F
:1027900019641B6C03F080530193019B0F216FF0B0
:1027A0000100FDF7FFFE03B05DF804FB00380240B6
:1027B0000268094B9A4200D0704782B0002301930F
:1027C000064B5A6C42F001025A645B6C03F0010341
:1027D0000193019B02B070470000014000380240A5
:1027E00000B587B0002301930293039304930593EC
:1027F00002680F4B9A4202D007B05DF804FB002339
:1028000000930C4B1A6B42F001021A631B6B03F02E
:1028100001030093009B4FF4807301930223029302
:102820000123059301A90448FDF728FFE4E700BF51
:1028300000000140003802400000024010B58AB09C
:1028400000230593069307930893099303682B4A83
:10285000934204D02A4A93422FD00AB010BD0024DC
:102860000194284B5A6C42F010025A645A6C02F0E0
:1028700010020192019A02941A6B42F001021A634B
:102880001B6B03F001030293029B4FF4C06305939B
:102890000223069301230793032308930723099335
:1028A00005A91948FDF7EAFE224605212520FDF776
:1028B00079FE2520FDF7AAFECFE700210391114BF9
:1028C0001A6C42F400321A641A6C02F40032039259
:1028D000039A04911A6B42F001021A631B6B03F016
:1028E00001030493049B0C230593022306930723FF
:1028F000099305A90448FDF7C1FEAEE700100140A9
:102900000044004000380240000002407047FEE7EB
:10291000FEE7FEE7FEE7704708B5FDF71FFEFEF78E
:10292000AFFF08BD08B50248FEF7E4FE08BD00BFD2
:10293000803D002008B520210348FDF777FF4FF4C4
:102940000050FDF77DFF08BD000002400F49D1F89F
:10295000883043F47003C1F888300D4B1A6842F098
:1029600001021A60002098601A6822F0847222F432
:1029700080321A60074A5A601A6822F480221A606C
:10298000D8604FF000638B60704700BF00ED00E03F
:102990000038024010300024DFF834D0002103E07A
:1029A0000C4B5B58435004310B480C4B42189A4275
:1029B000F6D30B4A02E0002342F8043B094B9A424B
:1029C000F9D3FFF7C3FF00F011F8FFF7ADFE704732
:1029D00000800120AC2A0008000000201000002028
:1029E00010000020443E0020FEE7000070B50D4EB0
:1029F0000D4CA41BA4100025A54209D10B4E0C4C74
:102A000000F020F8A41BA4100025A54205D170BD3C
:102A100056F8253098470135EEE756F825309847A7
:102A20000135F2E7A42A0008A42A0008A42A000815
:102A3000A82A000802440346934200D1704703F8D5
:102A4000011BF9E7F8B500BFF8BC08BC9E4670470B
:0C2A5000F8B500BFF8BC08BC9E467047FB
:102A5C00902A0008892600080000000000000000F1
:102A6C0080000000000000000000000001020304D0
:102A7C0006070809000000000102030449444C4504
:102A8C000000000064656661756C745461736B00C2
:082A9C0074D7FF7F0100000068
:042AA400C501000860
:042AA800A101000880
:102AAC000100000010000000AAAAAAAA0024F40049
:04000005080029992D
:00000001FF
