:020000040800F2
:100000000080012065300008B52F0008C32F0008CC
:10001000C92F0008CF2F0008D52F000800000000CE
:100020000000000000000000000000007124000833
:10003000DB2F000800000000B1260008E92F0008AF
:10004000B5300008B5300008B5300008B5300008FC
:10005000B5300008B5300008B5300008B5300008EC
:10006000B5300008B5300008B5300008B5300008DC
:10007000B5300008B5300008B5300008B5300008CC
:10008000B5300008B5300008B530000800000000A9
:10009000000000000000000000000000B530000873
:1000A000B5300008B5300008B5300008B53000089C
:1000B000B5300008B5300008B5300008B53000088C
:1000C000B5300008B5300008B5300008B53000087C
:1000D000B5300008B5300008B53000080000000059
:1000E000B5300008B5300008B53000080000000049
:1000F000000000000000000000000000B530000813
:1001000000000000B5300008B5300008B530000828
:1001100000000000000000000000000000000000DF
:10012000B5300008B5300008B5300008B53000081B
:10013000B5300008000000000000000000000000D2
:10014000000000000000000000000000B5300008C2
:10015000B5300008B5300008B5300008B5300008EB
:10016000B5300008B53000080000000000000000B5
:10017000000000000000000000000000000000007F
:1001800000000000B5300008000000000000000082
:04019000B53000087E
:1001A00010B5054C237833B9044B13B10448AFF3B1
:1001B00000800123237010BD10000020000000000B
:1001C0001031000808B5034B1BB103490348AFF3D6
:1001D000008008BD0000000014000020103100085D
:1001E00053B94AB9002908BF00281CBF4FF0FF319E
:1001F0004FF0FF3000F072B9ADF1080C6DE904CE9C
:1002000000F006F8DDF804E0DDE9022304B07047F1
:100210002DE9F047089E04468846002B4BD18A42C0
:10022000154667D9B2FA82F24AB1C2F1200701FA43
:1002300002F320FA07F7954047EA030894404FEA93
:10024000154E230CB8FBFEF71FFA85FC0EFB178832
:1002500043EA084307FB0CF1994209D9EB1807F16F
:10026000FF3080F01B81994240F21881023F2B44FD
:100270005B1AA4B2B3FBFEF00EFB103344EA034456
:1002800000FB0CFCA44509D92C1900F1FF3380F0C8
:100290000781A44540F2048102382C4440EA07401B
:1002A000A4EB0C0400271EB1D4400023C6E9004390
:1002B0003946BDE8F0878B4209D9002E00F0EB806B
:1002C0000027C6E9000138463946BDE8F087B3FA91
:1002D00083F7002F47D18B4202D3824200F2FA808B
:1002E000841A61EB030301209846002EE0D0C6E992
:1002F0000048DDE702B9FFDEB2FA82F2002A40F0E0
:100300008F80491B4FEA154E1FFA85F80127B1FB74
:10031000FEFC230C0EFB1C1143EA014308FB0CF10D
:10032000994207D9EB180CF1FF3002D2994200F242
:10033000CD808446591AA3B2B1FBFEF00EFB101417
:1003400043EA044408FB00F8A04507D92C1900F142
:10035000FF3302D2A04500F2B6801846A4EB080491
:1003600040EA0C409FE7C7F1200CBB4022FA0CFE8C
:100370004EEA030E01FA07F420FA0CF521FA0CF309
:100380004FEA1E482543B3FBF8F92C0C08FB193340
:100390001FFA8EFA44EA034309FB0AF49C4202FA6C
:1003A00007F200FA07F10BD91EEB030309F1FF3046
:1003B00080F087809C4240F28480A9F10209734456
:1003C0001B1BADB2B3FBF8F008FB103345EA034446
:1003D00000FB0AFAA24508D91EEB040400F1FF3322
:1003E0006BD2A24569D90238744440EA0940A0FBA7
:1003F0000289A4EB0A044C45C2464B4654D351D063
:10040000002E69D0B1EB0A0564EB030404FA0CFC7E
:10041000FD40FC404CEA0505C6E90054002747E7CB
:10042000C2F1200320FA03F7954001FA02F021FA05
:1004300003F34FEA154E3843010CB3FBFEF71FFAE6
:1004400085F80EFB173341EA034107FB08F38B42A3
:1004500004FA02F407D9691807F1FF3C2FD28B4246
:100460002DD9023F2944CB1A81B2B3FBFEF00EFB1B
:10047000103341EA034100FB08F38B4207D96918A6
:1004800000F1FF3C17D28B4215D902382944C91A12
:1004900040EA07473BE73746304609E70746E7E6C5
:1004A0001846FBE64145ABD2B8EB020A69EB0E02F7
:1004B00001381346A4E76046E9E7184695E7674622
:1004C000D1E781467CE702382C4447E7ACF1020CC7
:1004D0002B442FE7384608E73746E9E6704700BF68
:1004E00080B500AF0E4B1B680D4A43F400731360D8
:1004F0000B4B1B680A4A43F480631360084B1B686C
:10050000074A43F480731360032000F00DF90F20B5
:1005100000F008F802F0DAFC0023184680BD00BFA6
:10052000003C024080B582B000AF7860124B1A6880
:10053000124B1B7819464FF47A73B3FBF1F3B2FBFD
:10054000F3F3184600F017F90346002B01D00123FE
:100550000EE07B680F2B0AD8002279684FF0FF303D
:1005600000F0EDF8064A7B681360002300E00123E9
:1005700018460837BD4680BD0C000020040000204E
:100580000000002080B400AF064B1B781A46064BD3
:100590001B681344044A136000BFBD465DF8047B2A
:1005A000704700BF040000207C3D002080B400AFF5
:1005B000034B1B681846BD465DF8047B704700BFBF
:1005C0007C3D002080B485B000AF78607B6803F08C
:1005D0000703FB600C4BDB68BB60BA684FF6FF0398
:1005E0001340BB60FB681A02BB68134343F0BF6350
:1005F00043F40033BB60044ABB68D36000BF1437C8
:10060000BD465DF8047B704700ED00E080B400AFAC
:10061000044BDB681B0A03F007031846BD465DF870
:10062000047B704700ED00E080B483B000AF034668
:100630003960FB7197F90730002B0ADB3B68DAB2AF
:100640000C4997F907301201D2B20B4483F800230A
:100650000AE03B68DAB20849FB7903F00F03043B78
:100660001201D2B20B441A7600BF0C37BD465DF8BA
:10067000047B704700E100E000ED00E080B489B049
:1006800000AFF860B9607A60FB6803F00703FB61B4
:10069000FB69C3F10703042B28BF0423BB61FB697B
:1006A0000433062B02D9FB69033B00E000237B6186
:1006B0004FF0FF32BB6902FA03F3DA43BB681A401A
:1006C0007B699A404FF0FF317B6901FA03F3D9430C
:1006D0007B680B40134318462437BD465DF8047B06
:1006E0007047000080B582B000AF78607B68013B46
:1006F000B3F1807F01D301230FE00A4A7B68013BFD
:1007000053600F214FF0FF30FFF78EFF054B0022A3
:100710009A60044B07221A60002318460837BD462A
:1007200080BD00BF10E000E080B582B000AF78600F
:100730007868FFF747FF00BF0837BD4680BD80B52A
:1007400086B000AF0346B9607A60FB7300237B611B
:10075000FFF75CFF78617A68B9687869FFF78EFF08
:10076000024697F90F3011461846FFF75DFF00BFAC
:100770001837BD4680BD80B582B000AF786078681C
:10078000FFF7B0FF034618460837BD4680BD00009E
:1007900080B489B000AF7860396000237B610023AA
:1007A0003B610023BB610023FB6159E10122FB692E
:1007B00002FA03F37B613B681B687A6913403B6173
:1007C0003A697B699A4240F048813B685B68022B3A
:1007D00003D03B685B68122B23D1FB69DA087B6886
:1007E000083253F82230BB61FB6903F007039B001A
:1007F0000F2202FA03F3DB43BA691340BB613B6883
:100800001A69FB6903F007039B0002FA03F3BA6954
:100810001343BB61FB69DA087B680832B96943F8A6
:1008200022107B681B68BB61FB695B00032202FA34
:1008300003F3DB43BA691340BB613B685B6803F0B9
:100840000302FB695B0002FA03F3BA691343BB615D
:100850007B68BA691A603B685B68012B0BD03B6808
:100860005B68022B07D03B685B68112B03D03B68A9
:100870005B68122B30D17B689B68BB61FB695B00B6
:10088000032202FA03F3DB43BA691340BB613B68FE
:10089000DA68FB695B0002FA03F3BA691343BB61D0
:1008A0007B68BA699A607B685B68BB610122FB69FF
:1008B00002FA03F3DB43BA691340BB613B685B6830
:1008C0001B0903F00102FB6902FA03F3BA6913433F
:1008D000BB617B68BA695A607B68DB68BB61FB6996
:1008E0005B00032202FA03F3DB43BA691340BB61E6
:1008F0003B689A68FB695B0002FA03F3BA69134329
:10090000BB617B68BA69DA603B685B6803F080535F
:10091000002B00F0A2800023FB60564B5B6C554A15
:1009200043F480435364534B5B6C03F48043FB609C
:10093000FB68514AFB699B08023352F82330BB61C4
:10094000FB6903F003039B000F2202FA03F3DB436E
:10095000BA691340BB617B68484A934219D07B68EF
:10096000474A934213D07B68464A93420DD07B6836
:10097000454A934207D07B68444A934201D10423FD
:1009800008E0072306E0032304E0022302E001233A
:1009900000E00023FA6902F0030292009340BA6972
:1009A0001343BB613449FB699B080233BA6941F8C0
:1009B0002320374B1B68BB613B69DB43BA6913409B
:1009C000BB613B685B6803F48033002B03D0BA69DA
:1009D0003B691343BB612E4ABB6913602C4B5B68B8
:1009E000BB613B69DB43BA691340BB613B685B6831
:1009F00003F40033002B03D0BA693B691343BB6196
:100A0000234ABB695360224B9B68BB613B69DB4354
:100A1000BA691340BB613B685B6803F48013002B29
:100A200003D0BA693B691343BB61194ABB69936040
:100A3000174BDB68BB613B69DB43BA691340BB61A1
:100A40003B685B6803F40013002B03D0BA693B6971
:100A50001343BB610E4ABB69D360FB690133FB6181
:100A6000FB690F2B7FF6A2AE00BF2437BD465DF8B1
:100A7000047B70470038024000380140000002400B
:100A80000004024000080240000C02400010024036
:100A9000003C014080B485B000AF78600B467B809D
:100AA0007B681A697B881340002B02D00123FB73FB
:100AB00001E00023FB73FB7B18461437BD465DF84D
:100AC000047B704780B483B000AF78600B467B80B6
:100AD00013467B707B78002B03D07A887B689A6101
:100AE00003E07B881A047B689A6100BF0C37BD461F
:100AF0005DF8047B704780B483B000AF78600B462C
:100B00007B807B685A697B881A407B889A4204D133
:100B10007B881A047B689A6102E07A887B689A6114
:100B200000BF0C37BD465DF8047B704780B586B0CA
:100B300000AF78607B68002B01D101232DE27B6838
:100B40001B6803F00103002B75D0A34B9B6803F0D7
:100B50000C03042B0CD0A04B9B6803F00C03082B58
:100B600012D19D4B5B6803F48003B3F5800F0BD16A
:100B7000994B1B6803F40033002B5BD07B685B68E8
:100B8000002B57D1012308E27B685B68B3F5803FF7
:100B900006D1914B1B68904A43F4803313601DE0EB
:100BA0007B685B68B3F5A02F0CD18B4B1B688A4A1E
:100BB00043F480231360884B1B68874A43F48033D7
:100BC00013600BE0844B1B68834A23F4803313606B
:100BD000814B1B68804A23F4802313607B685B6829
:100BE000002B13D0FFF7E2FC386108E0FFF7DEFCD2
:100BF00002463B69D31A642B01D90323CDE1764B1E
:100C00001B6803F40033002BF0D014E0FFF7CEFC98
:100C1000386108E0FFF7CAFC02463B69D31A642B2F
:100C200001D90323B9E16C4B1B6803F40033002B9B
:100C3000F0D100E000BF7B681B6803F00203002BCB
:100C400063D0654B9B6803F00C03002B0BD0624B09
:100C50009B6803F00C03082B1CD15F4B5B6803F40B
:100C60008003002B16D15C4B1B6803F00203002BA2
:100C700005D07B68DB68012B01D001238DE1564B49
:100C80001B6823F0F8027B681B69DB0052491343A1
:100C90000B603AE07B68DB68002B20D04F4B0122D1
:100CA0001A60FFF783FC386108E0FFF77FFC02461B
:100CB0003B69D31A022B01D903236EE1464B1B6813
:100CC00003F00203002BF0D0434B1B6823F0F80223
:100CD0007B681B69DB00404913430B6015E03F4B09
:100CE00000221A60FFF762FC386108E0FFF75EFC43
:100CF00002463B69D31A022B01D903234DE1364B3F
:100D00001B6803F00203002BF0D17B681B6803F023
:100D10000803002B30D07B685B69002B16D0304B6A
:100D200001221A60FFF742FC386108E0FFF73EFC41
:100D300002463B69D31A022B01D903232DE1264B2E
:100D40005B6F03F00203002BF0D015E0244B002270
:100D50001A60FFF72BFC386108E0FFF727FC02461A
:100D60003B69D31A022B01D9032316E11A4B5B6F9F
:100D700003F00203002BF0D17B681B6803F004032F
:100D8000002B00F0A0800023FB75134B1B6C03F0BD
:100D90008053002B0FD10023FB600F4B1B6C0E4ABE
:100DA00043F0805313640C4B1B6C03F08053FB60C7
:100DB000FB680123FB750B4B1B6803F48073002B4E
:100DC00021D1084B1B68074A43F480731360FFF777
:100DD000EDFB386111E000BF0038024000004742DF
:100DE000800E474200700040FFF7E0FB02463B697F
:100DF000D31A022B01D90323CFE06A4B1B6803F4FB
:100E00008073002BF0D07B689B68012B06D1664B6A
:100E10001B6F654A43F0010313671CE07B689B6806
:100E2000052B0CD1604B1B6F5F4A43F00403136723
:100E30005D4B1B6F5C4A43F0010313670BE05A4B99
:100E40001B6F594A23F001031367574B1B6F564A18
:100E500023F0040313677B689B68002B15D0FFF712
:100E6000A5FB38610AE0FFF7A1FB02463B69D31AF4
:100E700041F28832934201D903238EE04A4B1B6F23
:100E800003F00203002BEED014E0FFF78FFB386174
:100E90000AE0FFF78BFB02463B69D31A41F2883226
:100EA000934201D9032378E03F4B1B6F03F0020309
:100EB000002BEED1FB7D012B05D13B4B1B6C3A4A3D
:100EC00023F0805313647B689B69002B64D0364BFE
:100ED0009B6803F00C03082B5CD07B689B69022B9A
:100EE00041D1324B00221A60FFF760FB386108E005
:100EF000FFF75CFB02463B69D31A022B01D903239F
:100F00004BE0294B1B6803F00073002BF0D17B688A
:100F1000DA697B681B6A1A437B685B6A9B011A4328
:100F20007B689B6A5B08013B1B041A437B68DB6A96
:100F30001B061D4913434B601C4B01221A60FFF72F
:100F400035FB386108E0FFF731FB02463B69D31AF5
:100F5000022B01D9032320E0134B1B6803F000731D
:100F6000002BF0D018E0114B00221A60FFF71EFB97
:100F7000386108E0FFF71AFB02463B69D31A022BDF
:100F800001D9032309E0084B1B6803F00073002B11
:100F9000F0D101E0012300E0002318461837BD46D8
:100FA00080BD00BF00700040003802406000474232
:100FB00080B584B000AF786039607B68002B01D1C8
:100FC0000123CAE0674B1B6803F00F033A689A429B
:100FD0000CD9644B3A68D2B21A70624B1B6803F0AA
:100FE0000F033A689A4201D00123B6E07B681B6880
:100FF00003F00203002B20D07B681B6803F004037E
:10100000002B05D0584B9B68574A43F4E05393603C
:101010007B681B6803F00803002B05D0524B9B68CC
:10102000514A43F4604393604F4B9B6823F0F002B6
:101030007B689B684C4913438B607B681B6803F09B
:101040000103002B44D07B685B68012B07D1464B22
:101050001B6803F40033002B19D101237DE07B686A
:101060005B68022B03D07B685B68032B07D13E4B88
:101070001B6803F00073002B09D101236DE03A4B8C
:101080001B6803F00203002B01D1012365E0364BFE
:101090009B6823F003027B685B68334913438B60D2
:1010A000FFF784FAF8600AE0FFF780FA0246FB686F
:1010B000D31A41F28832934201D903234DE02A4BDF
:1010C0009B6803F00C027B685B689B009A42EBD143
:1010D000244B1B6803F00F033A689A420CD2214B51
:1010E0003A68D2B21A701F4B1B6803F00F033A68BC
:1010F0009A4201D0012330E07B681B6803F00403AF
:10110000002B08D0184B9B6823F4E0527B68DB6807
:10111000154913438B607B681B6803F00803002BA1
:1011200009D0114B9B6823F460427B681B69DB008C
:101130000D4913438B6000F01DF801460A4B9B6874
:101140001B0903F00F03094AD35C21FA03F3084A91
:1011500013600F20FFF7E6F9002318461037BD464D
:1011600080BD00BF003C02400038024090310008C2
:101170000C000020F0B585B000AF00237B60002399
:10118000FB6000233B600023BB60634B9B6803F064
:101190000C03042B07D0082B08D0002B40F0B480A0
:1011A0005E4BBB60B3E05E4BBB60B0E05A4B5B682C
:1011B00003F03F037B60584B5B6803F48003002B14
:1011C0004AD0554B5B689B094FF0000440F2FF1179
:1011D0004FF0000203EA010504EA020629463246FE
:1011E0004FF000034FF00004540144EAD1644B0176
:1011F00019462246491B62EB06024FF000034FF0EE
:101200000004940144EA91648B015B1A64EB0204CC
:101210004FF000014FF00002E20042EA5372D900A1
:101220000B4614465B1944EB06044FF000014FF0E7
:101230000002620242EAD35259020B461446184693
:1012400021467B684FF000041A462346FEF7C8FF8C
:1012500003460C46FB6049E02F4B5B689B094FF04F
:10126000000440F2FF114FF0000203EA010504EA16
:101270000206294632464FF000034FF000045401A5
:1012800044EAD1644B0119462246491B62EB06022F
:101290004FF000034FF00004940144EA91648B0185
:1012A0005B1A64EB02044FF000014FF00002E20011
:1012B00042EA5372D9000B4614465B1944EB06040C
:1012C0004FF000014FF00002A20242EA935299024D
:1012D0000B461446184621467B684FF000041A4618
:1012E0002346FEF77DFF03460C46FB600A4B5B6816
:1012F0001B0C03F0030301335B003B60FA683B689F
:10130000B2FBF3F3BB6002E0044BBB6000BFBB6801
:1013100018461437BD46F0BD003802400024F400E2
:1013200000127A0080B400AF034B1B681846BD461C
:101330005DF8047B704700BF0C00002080B500AF53
:10134000FFF7F0FF0146054B9B689B0A03F007037C
:10135000034AD35C21FA03F3184680BD00380240EB
:10136000A031000880B500AFFFF7DCFF0146054B58
:101370009B685B0B03F00703034AD35C21FA03F37A
:10138000184680BD00380240A031000880B582B008
:1013900000AF78607B68002B01D101233FE07B68C0
:1013A00093F83930DBB2002B06D17B68002283F83A
:1013B0003820786801F0B6FD7B68242283F8392054
:1013C0007B681B68DA687B681B6822F40052DA606D
:1013D000786800F029F87B681B681A697B681B68CD
:1013E00022F490421A617B681B685A697B681B680B
:1013F00022F02A025A617B681B68DA687B681B68E6
:1014000042F40052DA607B680022DA637B682022B3
:1014100083F839207B68202283F83A20002318467D
:101420000837BD4680BD0000B0B584B000AF78601D
:101430007B681B681B6923F440517B68DA687B6812
:101440001B680A431A617B689A687B681B691A43A8
:101450007B685B691A437B68DB691343FB607B68CD
:101460001B68DB6823F4164323F00C037A681268C8
:10147000F9680B43D3607B681B685B6923F4407198
:101480007B689A697B681B680A435A617B68DB69E1
:10149000B3F5004F40F0E4807B681B68AB4A934291
:1014A00004D07B681B68AA4A93426CD1FFF75AFFAD
:1014B000024613469B0013449A001A447B685B68FB
:1014C0005B00B2FBF3F3A34AA2FB03235B091C01FD
:1014D000FFF748FF024613469B0013449A001A4444
:1014E0007B685B685B00B2FBF3F5FFF73BFF0246EE
:1014F00013469B0013449A001A447B685B685B00A8
:10150000B2FBF3F3934AA2FB03235B09642202FBC1
:1015100003F3EB1ADB0032338E4AA2FB03235B0991
:101520005B0003F4F8731C44FFF71CFF02461346EC
:101530009B0013449A001A447B685B685B00B2FB13
:10154000F3F5FFF70FFF024613469B0013449A0082
:101550001A447B685B685B00B2FBF3F37D4AA2FB35
:1015600003235B09642202FB03F3EB1ADB00323333
:10157000784AA2FB03235B0903F007027B681B6820
:1015800022449A6054E1FFF7D9FE024613469B00BD
:1015900013449A001A447B685B685B00B2FBF3F368
:1015A0006C4AA2FB03235B091C01FFF7C7FE02463E
:1015B00013469B0013449A001A447B685B685B00E7
:1015C000B2FBF3F5FFF7BAFE024613469B00134445
:1015D0009A001A447B685B685B00B2FBF3F35D4AD8
:1015E000A2FB03235B09642202FB03F3EB1ADB007B
:1015F0003233584AA2FB03235B095B0003F4F87300
:101600001C44FFF79BFE024613469B0013449A00BE
:101610001A447B685B685B00B2FBF3F5FFF78EFE54
:10162000024613469B0013449A001A447B685B6889
:101630005B00B2FBF3F3474AA2FB03235B0964227E
:1016400002FB03F3EB1ADB003233424AA2FB032313
:101650005B0903F007027B681B6822449A60E7E09D
:101660007B681B68394A934204D07B681B68384A00
:10167000934271D1FFF776FE024613469B00134456
:101680009A001A447B685B689B00B2FBF3F3314A13
:10169000A2FB03235B091C01FFF764FE024613460D
:1016A0009B0013449A001A447B685B689B00B2FB62
:1016B000F3F5FFF757FE024613469B0013449A00CA
:1016C0001A447B685B689B00B2FBF3F3214AA2FBE0
:1016D00003235B09642202FB03F3EB1A1B01323381
:1016E0001C4AA2FB03235B0903F0F0031C44FFF731
:1016F00039FE024613469B0013449A001A447B6845
:101700005B689B00B2FBF3F5FFF72CFE0246134625
:101710009B0013449A001A447B685B689B00B2FBF1
:10172000F3F30C4AA2FB03235B09642202FB03F3DD
:10173000EB1A1B013233074AA2FB03235B0903F0B8
:101740000F027B681B6822449A6071E00010014020
:10175000001401401F85EB51FFF7F0FD02461346D0
:101760009B0013449A001A447B685B689B00B2FBA1
:10177000F3F3314AA2FB03235B091C01FFF7DEFDF3
:10178000024613469B0013449A001A447B685B6828
:101790009B00B2FBF3F5FFF7D1FD024613469B0019
:1017A00013449A001A447B685B689B00B2FBF3F316
:1017B000214AA2FB03235B09642202FB03F3EB1A19
:1017C0001B0132331C4AA2FB03235B0903F0F00325
:1017D0001C44FFF7B3FD024613469B0013449A00D6
:1017E0001A447B685B689B00B2FBF3F5FFF7A6FD2C
:1017F000024613469B0013449A001A447B685B68B8
:101800009B00B2FBF3F30C4AA2FB03235B096422A7
:1018100002FB03F3EB1A1B013233074AA2FB03233B
:101820005B0903F00F027B681B6822449A60FFE7A4
:1018300000BF1037BD46B0BD1F85EB5180B485B0E9
:1018400000AF0346FB800023FB60B7F90630842B12
:1018500005D0B7F90620FB6813440333FB60FB682F
:1018600018461437BD465DF8047B704780B500AF5D
:1018700000F05AFA0023184680BDF0B587B002AFD9
:10188000786039607B685C687B681D687B681B6971
:101890009EB27B68B3F908301846FFF7CFFF0246C7
:1018A00007F10C03019300923B683246294620461B
:1018B00000F0DDF80346012B01D0002300E0FB68B7
:1018C00018461437BD46F0BD80B584B000AF7860CF
:1018D0007B68FB60FB68002B01D0FB6800E0012304
:1018E000184600F0EDF9002318461037BD4680BDBC
:1018F00080B500AF00F0D8FC0346012B01D000F00A
:101900000BFF00BF80BD80B483B000AF78607B6800
:1019100003F108027B685A607B684FF0FF329A60DF
:101920007B6803F108027B68DA607B6803F10802D8
:101930007B681A617B6800221A6000BF0C37BD46C5
:101940005DF8047B704780B483B000AF78607B683B
:1019500000221A6100BF0C37BD465DF8047B70475A
:1019600080B485B000AF786039607B685B68FB60ED
:101970003B68FA685A60FB689A683B689A60FB6843
:101980009B683A685A60FB683A689A603B687A6874
:101990001A617B681B685A1C7B681A6000BF143789
:1019A000BD465DF8047B704780B485B000AF7860B9
:1019B00039603B681B68BB60BB68B3F1FF3F03D174
:1019C0007B681B69FB600CE07B680833FB6002E00E
:1019D000FB685B68FB60FB685B681B68BA689A42DF
:1019E000F6D2FB685A683B685A603B685B683A68A5
:1019F0009A603B68FA689A60FB683A685A603B688C
:101A00007A681A617B681B685A1C7B681A6000BF81
:101A10001437BD465DF8047B704780B485B000AFD5
:101A200078607B681B69FB607B685B687A6892689A
:101A30009A607B689B687A6852685A60FB685B684A
:101A40007A689A4203D17B689A68FB685A607B681F
:101A500000221A61FB681B685A1EFB681A60FB684B
:101A60001B6818461437BD465DF8047B704780B587
:101A70008CB004AFF860B9603B601346FB80FB8814
:101A80009B00184600F096FE78617B69002B0ED013
:101A9000542000F08FFEF861FB69002B03D0FB6936
:101AA0007A691A6305E0786900F046FF01E00023D7
:101AB000FB61FB69002B13D0FA8800230393FB69B9
:101AC0000293FB6A0193BB6A00933B68B968F868AC
:101AD00000F00EF8F86900F089F80123BB6102E01C
:101AE0004FF0FF33BB61BB6918462037BD4680BD50
:101AF00080B588B000AFF860B9607A603B603B6B3E
:101B00001A6B7B6803F18043013B9B001344BB616C
:101B1000BB6923F00703BB61BB6903F00703002B1C
:101B200009D04FF0500383F31188BFF36F8FBFF3D9
:101B30004F8F7B61FEE70023FB6112E0BA68FB690F
:101B4000134419783A6BFB69134434330A461A700C
:101B5000BA68FB6913441B78002B06D0FB6901337C
:101B6000FB61FB690F2BE9D900E000BF3B6B002252
:101B700083F84320BB6A062B01D90623BB623B6B6B
:101B8000BA6ADA623B6BBA6A5A643B6B00229A64A7
:101B90003B6B04331846FFF7D6FE3B6B18331846F1
:101BA000FFF7D1FE3B6B3A6B1A61BB6AC3F10702C8
:101BB0003B6B9A613B6B3A6B5A623B6B0022DA6477
:101BC0003B6B002283F850203A68F968B86900F04E
:101BD000EFFB02463B6B1A60FB6A002B02D0FB6AEC
:101BE0003A6B1A6000BF2037BD4680BD80B582B019
:101BF00000AF786000F002FD2A4B1B680133294AD0
:101C00001360294B1B68002B09D1274A7B6813609E
:101C1000244B1B68012B10D100F0A4FA0DE0234BDC
:101C20001B68002B09D1204B1B68DA6A7B68DB6AD2
:101C30009A4202D81C4A7B6813601D4B1B68013313
:101C40001B4A13607B68DB6A01229A40194B1B68B0
:101C50001343184A13607B68DA6A13469B001344E7
:101C60009B00154A1A447B68043319461046FFF757
:101C700077FE00F0F1FC0D4B1B68002B0ED00A4BD9
:101C80001B68DA6A7B68DB6A9A4207D20B4B4FF01B
:101C900080521A60BFF34F8FBFF36F8F00BF0837BA
:101CA000BD4680BD2C0100202C0000203801002002
:101CB00048010020340100203000002004ED00E045
:101CC00080B584B000AF78600023FB607B68002B98
:101CD00016D0134B1B68002B09D04FF0500383F331
:101CE0001188BFF36F8FBFF34F8FBB60FEE700F02B
:101CF00061F80021786800F0F5FA00F069F8F86002
:101D0000FB68002B07D1074B4FF080521A60BFF3DE
:101D10004F8FBFF36F8F00BF1037BD4680BD00BF30
:101D20005401002004ED00E080B586B002AF1B4BEB
:101D30000193002300930023802219491948FFF7DB
:101D400096FEF860FB68012B15D14FF0500383F32A
:101D50001188BFF36F8FBFF34F8FBB60124B4FF0F3
:101D6000FF321A60114B01221A60114B00221A60D7
:101D700000F0A6FB0DE0FB68B3F1FF3F09D14FF087
:101D8000500383F31188BFF36F8FBFF34F8F7B60D6
:101D9000FEE700BF1037BD4680BD00BF50010020E8
:101DA00028310008352100084C01002038010020AE
:101DB0003001002080B400AF044B1B680133034A9C
:101DC000136000BFBD465DF8047B704754010020DE
:101DD00080B584B000AF0023FB600023BB60414BA3
:101DE0001B68002B09D14FF0500383F31188BFF318
:101DF0006F8FBFF34F8F3B60FEE700F0FFFB394B67
:101E00001B68013B374A1360364B1B68002B61D1BE
:101E1000354B1B68002B5DD02EE0344BDB68DB6854
:101E2000FB60FB6818331846FFF7F7FDFB680433C7
:101E30001846FFF7F2FDFB68DB6A01229A402C4B43
:101E40001B6813432A4A1360FB68DA6A13469B0037
:101E500013449B00274A1A44FB6804331946104672
:101E6000FFF77EFDFB68DA6A234B1B68DB6A9A4248
:101E700002D3224B01221A601C4B1B68002BCCD1D1
:101E8000FB68002B01D000F0E9F91D4B1B687B605B
:101E90007B68002B10D000F037F80346002B02D0EF
:101EA000164B01221A607B68013B7B607B68002B2C
:101EB000F1D1134B00221A60104B1B68002B09D084
:101EC0000123BB600F4B4FF080521A60BFF34F8F5E
:101ED000BFF36F8F00F0C0FBBB6818461037BD46DC
:101EE00080BD00BF540100202C010020EC00002028
:101EF00034010020300000202C0000204001002090
:101F00003C01002004ED00E080B586B000AF002366
:101F10007B61504B1B68002B40F08C804E4B1B6844
:101F200001333B614C4A3B6913603B69002B1FD175
:101F30004A4B1B681B68002B09D04FF0500383F3FA
:101F40001188BFF36F8FBFF34F8F3B60FEE7434BAA
:101F50001B68FB60424B1B68404A1360404AFB68A9
:101F60001360404B1B6801333E4A136000F076F962
:101F70003D4B1B683A699A424DD3384B1B681B682E
:101F8000002B01D1012300E00023002B04D0364BAD
:101F90004FF0FF321A603EE0304B1B68DB68DB68B5
:101FA000BB60BB685B687B603A697B689A4203D21E
:101FB0002D4A7B6813602EE0BB6804331846FFF798
:101FC0002CFDBB689B6A002B04D0BB6818331846F5
:101FD000FFF723FDBB68DB6A01229A40234B1B6895
:101FE0001343224A1360BB68DA6A13469B0013440A
:101FF0009B001F4A1A44BB68043319461046FFF77A
:10200000AFFCBB68DA6A1B4B1B68DB6A9A42B4D32D
:1020100001237B61B1E7174B1B68DA6A1449134649
:102020009B0013449B000B441B68012B07D9012321
:102030007B6104E0104B1B6801330F4A13600F4BA8
:102040001B68002B01D001237B617B691846183780
:10205000BD4680BD5401002030010020E400002076
:10206000E8000020440100204C0100203401002041
:10207000300000202C0000203C0100204001002006
:1020800080B487B000AF264B1B68002B03D0254BD4
:1020900001221A603EE0234B00221A60224B1B688B
:1020A000FB60FB68B3FA83F3FB72FB7AC3F11F0397
:1020B0007B611E497A6913469B0013449B000B44C5
:1020C0001B68002B09D14FF0500383F31188BFF335
:1020D0006F8FBFF34F8F7B60FEE77A6913469B00DB
:1020E00013449B00114A13443B613B695B685A6887
:1020F0003B695A603B695A683B6908339A4204D18C
:102100003B695B685A683B695A603B695B68DB689E
:10211000074A136000BF1C37BD465DF8047B70475B
:102120005401002040010020340100203000002034
:102130002C00002080B582B000AF786000F052F82B
:10214000064B1B68012BF9D9054B4FF080521A60E2
:10215000BFF34F8FBFF36F8FF0E700BF3000002059
:1021600004ED00E080B582B000AF00237B600CE09E
:102170007A6813469B0013449B00124A1344184686
:10218000FFF7C1FB7B6801337B607B68062BEFD9CF
:102190000D48FFF7B8FB0D48FFF7B5FB0C48FFF7FC
:1021A000B2FB0C48FFF7AFFB0B48FFF7ACFB0B4B48
:1021B000054A1A600A4B054A1A6000BF0837BD4637
:1021C00080BD00BF30000020BC000020D0000020F7
:1021D000EC0000200001002018010020E400002095
:1021E000E800002080B582B000AF19E000F006FAE8
:1021F0000F4BDB68DB687B607B6804331846FFF7B6
:102200000CFC0C4B1B68013B0A4A13600A4B1B6811
:10221000013B094A136000F01FFA786800F00EF8DD
:10222000054B1B68002BE1D100BF0837BD4680BDC0
:10223000000100202C0100201401002080B582B094
:1022400000AF78607B681B6B184600F075FB786800
:1022500000F072FB00BF0837BD4680BD80B483B07C
:1022600000AF0F4B1B681B68002B01D1012300E05E
:102270000023002B04D00B4B4FF0FF321A6008E014
:10228000074B1B68DB68DB687B607B685B68054A23
:10229000136000BF0C37BD465DF8047B704700BF7C
:1022A000E40000204C01002080B483B000AF0B4B51
:1022B0001B68002B02D101237B6008E0084B1B68E0
:1022C000002B02D102237B6001E000237B607B684E
:1022D00018460C37BD465DF8047B70473801002076
:1022E0005401002080B584B000AF78603960294B7C
:1022F0001B68FB60284B1B6804331846FFF78DFBF7
:102300000346002B0BD1244B1B68DB6A012202FA27
:1023100003F3DA43214B1B681340204A13607B68A8
:10232000B3F1FF3F0AD13B68002B07D01A4B1B6863
:10233000043319461A48FFF713FB26E0FA687B6856
:102340001344BB60144B1B68BA685A60BA68FB68D8
:102350009A4209D2134B1A680F4B1B680433194673
:102360001046FFF721FB10E00F4B1A680A4B1B6861
:10237000043319461046FFF717FB0C4B1B68BA686D
:102380009A4202D2094ABB68136000BF1037BD46AB
:1023900080BD00BF300100202C000020340100204F
:1023A00018010020E8000020E40000204C0100207B
:1023B00080B485B000AFF860B9607A60FB68043B18
:1023C000FB60FB684FF080721A60FB68043BFB60A7
:1023D000BB6823F00102FB681A60FB68043BFB60EA
:1023E0000C4AFB681A60FB68143BFB607A68FB6868
:1023F0001A60FB68043BFB60FB686FF002021A6026
:10240000FB68203BFB60FB6818461437BD465DF84F
:10241000047B70471924000880B485B000AF002306
:102420007B60114B1B68B3F1FF3F09D04FF05003A5
:1024300083F31188BFF36F8FBFF34F8FFB60FEE70D
:102440004FF0500383F31188BFF36F8FBFF34F8FAB
:10245000BB6000BF7B68002BFCD000BF1437BD46BB
:102460005DF8047B704700BF0800002000000000FA
:10247000074B19680868B0E8F04F80F30988BFF38C
:102480006F8F4FF0000080F311887047AFF300802A
:102490002C00002000BF00BF08480068006880F3DF
:1024A00008884FF0000080F3148862B661B6BFF36D
:1024B0004F8FBFF36F8F00DF00BF00BF08ED00E05C
:1024C00080B586B000AF444B1B68444A934209D1A3
:1024D0004FF0500383F31188BFF36F8FBFF34F8F1B
:1024E0003B61FEE73C4B1B683D4A934209D14FF0EC
:1024F000500383F31188BFF36F8FBFF34F8FFB60DF
:10250000FEE7384B7B617B691B78DBB27B607B69C4
:10251000FF221A707B691B78DBB2FB70FB78DBB2A1
:1025200003F05003DAB2304B1A70304B07221A60B6
:1025300009E02E4B1B68013B2C4A1360FB78DBB291
:102540005B00DBB2FB70FB78DBB203F08003802B17
:10255000EFD0264B1B68C3F10703042B09D04FF0C3
:10256000500383F31188BFF36F8FBFF34F8FBB60AE
:10257000FEE71E4B1B681B021C4A13601B4B1B68AB
:1025800003F4E063194A13607B68DAB27B691A705E
:10259000174B1B68164A43F470031360144B1B68F7
:1025A000134A43F07043136000F0D6F8114B002239
:1025B0001A6000F0F5F8104B1B680F4A43F04043D7
:1025C0001360FFF769FFFFF75BFDFFF725FF0023AF
:1025D00018461837BD4680BD00ED00E071C20F41BE
:1025E00070C20F4100E400E0580100205C010020AF
:1025F00020ED00E00800002034EF00E080B483B05C
:1026000000AF4FF0500383F31188BFF36F8FBFF318
:102610004F8F7B600E4B1B6801330D4A13600C4BD0
:102620001B68012B0ED10B4B1B68DBB2002B09D0B2
:102630004FF0500383F31188BFF36F8FBFF34F8FB9
:102640003B60FEE700BF0C37BD465DF8047B70477A
:102650000800002004ED00E080B483B000AF114B0F
:102660001B68002B09D14FF0500383F31188BFF38F
:102670006F8FBFF34F8F7B60FEE70A4B1B68013BF8
:10268000084A1360074B1B68002B04D100233B60F2
:102690003B6883F3118800BF0C37BD465DF8047BAF
:1026A000704700BF0800002000000000000000008C
:1026B000EFF30980BFF36F8F154B1A681EF0100FF0
:1026C00008BF20ED108A20E9F04F10602DE90900C5
:1026D0004FF0500080F31188BFF34F8FBFF36F8F1F
:1026E000FFF7CEFC4FF0000080F3118809BC196899
:1026F0000868B0E8F04F1EF0100F08BFB0EC108A69
:1027000080F30988BFF36F8F704700BFAFF300807D
:102710002C00002000BF00BF80B582B000AF4FF09A
:10272000500383F31188BFF36F8FBFF34F8F7B602C
:10273000FFF7EAFB0346002B03D0064B4FF0805215
:102740001A6000233B603B6883F3118800BF0837A1
:10275000BD4680BD04ED00E080B400AF0B4B00220D
:102760001A600B4B00221A600A4B1B680A4AA2FB34
:1027700003239B09094A013B1360044B07221A609B
:1027800000BFBD465DF8047B704700BF10E000E06D
:1027900018E000E00C000020D34D621014E000E0CF
:1027A000DFF80C00016841F470010160704700BF60
:1027B00088ED00E080B58AB000AF78600023FB614F
:1027C000FFF7F8FA574B1B68002B01D100F00CF90A
:1027D000554B1A687B681340002B40F08C807B6857
:1027E000002B1CD008227B6813447B607B6803F0BD
:1027F0000703002B13D07B6823F0070308337B60AB
:102800007B6803F00703002B09D04FF0500383F3DC
:102810001188BFF36F8FBFF34F8F7B61FEE77B683B
:10282000002B68D0414B1B687A689A4263D8404BB2
:102830003B623F4B1B687B6204E07B6A3B627B6AC6
:102840001B687B627B6A5B687A689A4203D97B6A01
:102850001B68002BF1D1334B1B687A6A9A424AD02D
:102860003B6A1B6808221344FB617B6A1A683B6A57
:102870001A607B6A5A687B68D21A08235B009A4206
:102880001ED97A6A7B681344BB61BB6903F00703F6
:10289000002B09D04FF0500383F31188BFF36F8FE3
:1028A000BFF34F8F3B61FEE77B6A5A687B68D21AA1
:1028B000BB695A607B6A7A685A60B86900F0F6F8BA
:1028C0001A4B1A687B6A5B68D31A184A1360174B55
:1028D0001A68184B1B689A4203D2144B1B68154A9E
:1028E00013607B6A5A68104B1B681A437B6A5A60F4
:1028F0007B6A00221A60FFF76BFAFB6903F007039B
:10290000002B09D04FF0500383F31188BFF36F8F72
:10291000BFF34F8FFB60FEE7FB6918462837BD46C3
:1029200080BD00BF683D0020743D00206C3D00204C
:10293000603D0020703D002080B586B000AF78601B
:102940007B687B617B68002B46D008235B427A69F9
:1029500013447B617B693B613B695A68204B1B6870
:102960001340002B09D14FF0500383F31188BFF3BC
:102970006F8FBFF34F8FFB60FEE73B691B68002B37
:1029800009D04FF0500383F31188BFF36F8FBFF36B
:102990004F8FBB60FEE73B695A68114B1B681340C1
:1029A000002B19D03B691B68002B15D13B695A6875
:1029B0000B4B1B68DB431A403B695A60FFF7FAF97F
:1029C0003B695A68074B1B681344064A1360386911
:1029D00000F06CF8FFF7FCF900BF1837BD4680BD6A
:1029E000743D00206C3D002080B485B000AF4FF4F2
:1029F0007053BB60274BFB60FB6803F00703002BA1
:102A00000CD0FB680733FB60FB6823F00703FB6017
:102A1000BA68FB68D31A1F4A1344BB60FB687B602B
:102A20001D4A7B6813601C4B00225A607B68BA68A1
:102A30001344FB600822FB689B1AFB60FB6823F0D1
:102A40000703FB60FB68154A1360144B1B680022E8
:102A50005A60124B1B6800221A607B683B603B681F
:102A6000FA68D21A3B685A600C4B1A683B681A60C5
:102A70003B685B680A4A13603B685B68094A1360FD
:102A8000094B4FF000421A6000BF1437BD465DF895
:102A9000047B704760010020603D0020683D0020FD
:102AA000703D00206C3D0020743D002080B485B056
:102AB00000AF7860284BFB6002E0FB681B68FB609E
:102AC000FB681B687A689A42F7D8FB68BB60FB68B2
:102AD0005B68BA6813447A689A4208D1FB685A68FE
:102AE0007B685B681A44FB685A60FB687B607B68A4
:102AF000BB607B685B68BA681A44FB681B689A42D3
:102B000018D1FB681A68154B1B689A420DD07B6878
:102B10005A68FB681B685B681A447B685A60FB68EC
:102B20001B681A687B681A6008E00C4B1A687B689F
:102B30001A6003E0FB681A687B681A60FA687B68B1
:102B40009A4202D0FB687A681A6000BF1437BD460B
:102B50005DF8047B704700BF603D0020683D0020A9
:102B6000B0B590B000AFFDF7BBFC00F045F800F049
:102B7000D9F800F0ADF81A4B07F12C041D460FCD23
:102B80000FC42B68236007F12C0300211846FEF7C1
:102B900074FE0246134B1A60134B07F118041D46CE
:102BA0000FCD0FC42B68236007F1180300211846CE
:102BB000FEF763FE02460D4B1A600D4B3C1D1D4691
:102BC0000FCD0FC42B6823603B1D00211846FEF774
:102BD00054FE0246074B1A60FEF748FEFEE700BFB0
:102BE0003C310008803D00205C310008843D00201D
:102BF0007C310008883D002080B594B000AF07F11B
:102C0000200330220021184600F07AFA07F10C0365
:102C100000221A605A609A60DA601A610023BB6071
:102C2000294B1B6C284A43F080531364264B1B6CC2
:102C300003F08053BB60BB6800237B60234B1B68A1
:102C400023F44043214A43F4004313601F4B1B68A5
:102C500003F440437B607B6802233B620123FB62F9
:102C600010233B630223BB630023FB6310233B64FD
:102C70004FF4A8737B640423BB640723FB6407F150
:102C800020031846FDF752FF0346002B01D000F049
:102C900015F90F23FB6002233B6100237B614FF496
:102CA0008053BB610023FB6107F10C03022118462E
:102CB000FEF77EF90346002B01D000F0FFF800BFBD
:102CC0005037BD4680BD00BF003802400070004054
:102CD00080B500AF114B124A1A60104B4FF4E1322D
:102CE0005A600E4B00229A600C4B0022DA600B4BAC
:102CF00000221A61094B0C225A61084B00229A618A
:102D0000064B0022DA610548FEF740FB0346002B24
:102D100001D000F0D3F800BF80BD00BF8C3D002083
:102D20000044004080B58AB000AF07F114030022D0
:102D30001A605A609A60DA601A6100233B612E4B78
:102D40001B6B2D4A43F0040313632B4B1B6B03F0E7
:102D500004033B613B690023FB60274B1B6B264A46
:102D600043F080031363244B1B6B03F08003FB6071
:102D7000FB680023BB60204B1B6B1F4A43F0010321
:102D800013631D4B1B6B03F00103BB60BB68002387
:102D90007B60194B1B6B184A43F002031363164BFD
:102DA0001B6B03F002037B607B6800224FF4A4617D
:102DB0001248FDF787FE4FF400537B61104BBB6157
:102DC0000023FB6107F1140319460E48FDF7E0FCF0
:102DD0004FF4A4637B610123BB610023FB610023EB
:102DE0003B6207F1140319460448FDF7D1FC00BF0C
:102DF0002837BD4680BD00BF0038024000000240B9
:102E0000000021100008024080B582B000AF786059
:102E10000120FEF759FDFBE780B582B000AF786076
:102E20000C4B1B68012B0AD120210B48FDF763FED8
:102E300001224FF480610848FDF744FE05E00022BE
:102E40004FF480610448FDF73DFE4FF4C870FEF773
:102E50003BFDE5E7783D00200000024080B584B0EE
:102E600000AF78604FF400511148FDF713FE0346A0
:102E7000FB60FB68002B0CBF01230023DBB21A466A
:102E80004FF480710B48FDF71DFEFB68002B0AD143
:102E9000094B1B68002B03D1074B01221A6002E08B
:102EA000054B00221A604FF4C870FEF70DFDD9E7FC
:102EB0000008024000000240783D002080B400AFCE
:102EC00000BFBD465DF8047B7047000080B582B04E
:102ED00000AF00237B60124B5B6C114A43F48043CC
:102EE00053640F4B5B6C03F480437B607B6800236F
:102EF0003B600B4B1B6C0A4A43F080531364084B36
:102F00001B6C03F080533B603B6800220F216FF085
:102F10000100FDF714FC00BF0837BD4680BD00BFAF
:102F20000038024080B58AB000AF786007F1140322
:102F300000221A605A609A60DA601A617B681B6826
:102F4000194A93422BD100233B61184B1B6C174A43
:102F500043F400331364154B1B6C03F400333B61E3
:102F60003B690023FB60114B1B6B104A43F00103CC
:102F700013630E4B1B6B03F00103FB60FB680C2318
:102F80007B610223BB610023FB6100233B620723BB
:102F90007B6207F1140319460548FDF7F9FB00BFF2
:102FA0002837BD4680BD00BF0044004000380240C5
:102FB0000000024080B400AF00BFBD465DF8047B56
:102FC000704780B400AFFEE780B400AFFEE780B486
:102FD00000AFFEE780B400AFFEE780B400AF00BFF3
:102FE000BD465DF8047B704780B500AFFDF7CAFAB7
:102FF000FEF77EFC00BF80BD80B400AF164BD3F857
:103000008830154A43F47003C2F88830134B1B68AC
:10301000124A43F001031360104B00229A600F4BD9
:103020001B680E4A23F0847323F4803313600B4B28
:103030000B4A5A60094B1B68084A23F4802313602B
:10304000064B0022DA60044B4FF000629A6000BF2A
:10305000BD465DF8047B704700ED00E0003802409B
:1030600010300024DFF834D0002103E00C4B5B5813
:10307000435004310B480C4B42189A42F6D30B4A8A
:1030800002E0002342F8043B094B9A42F9D3FFF7D0
:10309000B3FF00F011F8FFF763FD704700800120D7
:1030A000B8310008000000201000002010000020AF
:1030B000CC3D0020FEE7000070B50D4E0D4CA41B6A
:1030C000A4100025A54209D10B4E0C4C00F020F8AD
:1030D000A41BA4100025A54205D170BD56F82530CB
:1030E00098470135EEE756F8253098470135F2E765
:1030F000B0310008B0310008B0310008B431000828
:1031000002440346934200D1704703F8011BF9E7DC
:10311000F8B500BFF8BC08BC9E467047F8B500BFC4
:08312000F8BC08BC9E46704794
:1031280049444C450000000064656661756C745440
:1031380061736B0030310008092E000800000000A0
:1031480000000000800000006D795461736B30321C
:103158000000000050310008192E0008000000008F
:1031680000000000800000006D795461736B3033FB
:1031780000000000703100085D2E0008000000000B
:1031880000000000800000000000000000000000B7
:1031980001020304060708090000000001020304F5
:0831A80068D0FF7F0100000068
:0431B000C50100084D
:0431B400A10100086D
:1031B8001000000001000000AAAAAAAA0024F40036
:04000005080030655A
:00000001FF
