:020000040800F2
:1000000000A0002061240008E1230008E323000889
:10001000E5230008E7230008E923000800000000AA
:10002000000000000000000000000000611A00084D
:10003000EB23000800000000011B0008ED2300086E
:10004000B1240008B1240008B1240008B12400083C
:10005000B1240008B1240008B1240008B12400082C
:10006000B1240008B1240008B1240008B12400081C
:10007000B1240008B1240008B1240008B12400080C
:10008000B1240008B1240008B1240008B1240008FC
:10009000B1240008B1240008B1240008B1240008EC
:1000A000B1240008B1240008B1240008B1240008DC
:1000B000B1240008B1240008B1240008B1240008CC
:1000C000B1240008B1240008B1240008B1240008BC
:1000D000B1240008B1240008B1240008B1240008AC
:1000E000B1240008B1240008B1240008B12400089C
:1000F000B1240008B1240008B1240008B12400088C
:10010000000000000000000000000000B124000812
:10011000B1240008B1240008B1240008B12400086B
:10012000B1240008B1240008B1240008B12400085B
:10013000B1240008B1240008000000000000000005
:10014000B1240008B1240008B12400080000000018
:10015000000000000000000000000000000000009F
:100160000000000000000000B1240008B1240008D5
:10017000B1240008000000000000000000000000A2
:0801800000000000B12400089A
:1001900010B5054C237833B9044B13B10448AFF3C1
:1001A00000800123237010BD10000020000000001B
:1001B0000C25000808B5034B1BB103490348AFF3F6
:1001C000008008BD00000000140000200C2500087D
:1001D00010B504460E4B18784FF47A73B3FBF0F366
:1001E0000C4A1068B0FBF3F000F080F868B90F2CEF
:1001F00001D901200AE0002221464FF0FF3000F033
:1002000041F8034B5C60002000E0012010BD00BFFE
:10021000000000200C00002008B5074A136843F0D6
:1002200010031360032000F01BF80F20FFF7D0FF2E
:1002300002F018F8002008BD00200240034A1168AF
:10024000034B1B780B441360704700BF780D0020F0
:1002500000000020014B1868704700BF780D002097
:10026000074AD36823F4E0631B041B0C000200F46C
:10027000E060184340F0BF6040F40030D060704749
:1002800000ED00E030B4174BDB68C3F30223C3F189
:100290000704042C28BF04241D1D062D18D9033B78
:1002A0004FF0FF3505FA04F421EA0401994005FAFC
:1002B00003F322EA0303194300280BDB0901C9B247
:1002C00000F1604000F5614080F8001330BC7047D9
:1002D0000023E5E700F00F000901C9B2024B1954F1
:1002E000F4E700BF00ED00E014ED00E00138B0F1EC
:1002F000807F0AD2064B5860064AF02182F823100C
:100300000020986007221A6070470120704700BFE4
:1003100010E000E000ED00E0F0B482B0002336E031
:10032000042400E00024B4403C4302355B4E46F810
:1003300025405B4C2568D44304EA05064F6817F452
:10034000803F01D042EA0506554D2E606D6804EAF3
:1003500005064F6817F4003F01D042EA0506504DEC
:100360006E60AD6804EA05064F6817F4801F01D07F
:1003700042EA05064A4DAE60ED682C404E6816F420
:10038000001F01D042EA0504454AD46001330A68DF
:1003900032FA03F47ED001249C402240F6D04D680E
:1003A000022D01D0122D10D1DE08083650F826C0DB
:1003B00003F00705AF000F25BD402CEA050C0D69C1
:1003C000BD4045EA0C0540F8265006685F0003254D
:1003D000BD40ED4305EA060C4E6806F00306BE403C
:1003E00046EA0C0606604E6806F1FF3CBCF1010FC0
:1003F00003D9112E01D0122E10D1866805EA060C01
:10040000CE68BE4046EA0C068660466826EA0404CA
:100410004E68C6F300169E4026434660C4682540D9
:100420008C68BC402C43C4604C6814F0805FADD035
:100430001C4CA56945F00105A561A46904F00104FF
:100440000194019C9D08AE1C144C54F8267003F0D6
:100450000304A6000F24B44027EA0407B0F1904F2C
:100460003FF460AF104CA0420ED004F58064A0426F
:100470000CD004F58064A0420AD004F58064A04248
:100480003FF44EAF05244EE701244CE702244AE72F
:10049000032448E702B0F0BC704700BF00000140F1
:1004A00000040140001002400004004803691942A2
:1004B00001D100207047012070470AB9816270475E
:1004C000816170474369594041617047002859D0A4
:1004D00010B5044690F84130002B43D0242384F813
:1004E00041302268136823F00103136063682268B7
:1004F00023F0706313612268936823F400439360D0
:10050000E368012B33D0A368226843F4044393606B
:10051000E368022B31D02268536843F0007343F440
:10052000004353602268D36823F40043D3602369F7
:1005300062691343A169226843EA0123D360E36936
:10054000216A22680B4313602268136843F0010399
:10055000136000206064202384F84130206384F815
:10056000420010BD80F8403001F09CFEB6E7A36861
:10057000226843F400439360CAE723684FF40062A3
:100580005A60C8E70120704790F84130DBB2202B59
:1005900024D190F84030012B22D0012380F8403044
:1005A000242380F841300268136823F001031360AC
:1005B0000268136823F480531360026813681943B8
:1005C00011600268136843F001031360202380F870
:1005D0004130002380F840301846704702207047B1
:1005E0000220704790F84130DBB2202B22D190F8E6
:1005F0004030012B20D0012380F84030242380F8A4
:1006000041300268136823F0010313600268136825
:1006100023F4706343EA012111600268136843F018
:1006200001031360202380F84130002380F840301C
:1006300018467047022070470220704700284FD0AC
:1006400010B5044690F8713323B1032384F8713355
:10065000002214E080F8703301F08EFEF5E7D1003F
:10066000891A8B002344012183F8291083F828205C
:10067000002183F82B1059639963D96301326068B4
:100680009042ECD8002211E0D100891A8B0023445B
:10069000002183F8CD1183F8CC2183F8CF11C3F862
:1006A000D811C3F8DC11C3F8E01101329042EBD845
:1006B00022680123A2F8403022680020A2F84000FE
:1006C0002268A2F844002268A2F8500022684FF481
:1006D0003F41A2F8401084F8240084F8713310BD23
:1006E00001207047002800F0F58270B582B0044602
:1006F000036813F0010F3BD0B54B5B6803F00C03AC
:10070000042B1ED0B24B5B6803F00C03082B13D0F4
:100710006368B3F5803F68D0002B40F0928003F10E
:10072000804303F504331A6822F480321A601A6891
:1007300022F480221A605DE0A54B5B6813F4803FD1
:10074000E6D04FF4003393FAA3F3A14B19684FF4AA
:10075000003393FAA3F3B3FA83F303F01F030122E8
:1007600002FA03F30B4203D06368002B00F0B4825B
:10077000236813F0020F00F0C680954B5B6813F0FE
:100780000C0F00F09C80924B5B6803F00C03082B6D
:1007900000F08F802369002B00F0F380012292FA91
:1007A000A2F3B3FA83F303F1845303F584139B009C
:1007B0001A60FFF74FFD0546022393FAA3F3844B1B
:1007C0001968022393FAA3F3B3FA83F303F01F0328
:1007D000012202FA03F30B4240F0C480FFF73AFD16
:1007E000401B0228E8D9032083E2794A136843F4C6
:1007F00080331360764AD36A23F00F03A1680B435A
:10080000D3626368002B36D0FFF724FD05464FF412
:10081000003393FAA3F36E4B19684FF4003393FA45
:10082000A3F3B3FA83F303F01F03012202FA03F3E5
:100830000B429DD1FFF70EFD401B6428E7D9032032
:1008400057E2B3F5A02F09D0614B1A6822F4803229
:100850001A601A6822F480221A60CBE703F1804301
:10086000A3F53C331A6842F480221A601A6842F4F5
:1008700080321A60BEE7FFF7EDFC05464FF4003307
:1008800093FAA3F3524B19684FF4003393FAA3F38E
:10089000B3FA83F303F01F03012202FA03F30B42BE
:1008A0003FF466AFFFF7D6FC401B6428E6D903206F
:1008B0001FE2474B5B6813F4803F7FF46BAF02236A
:1008C00093FAA3F3424B1968022393FAA3F3B3FA02
:1008D00083F303F01F03012202FA03F30B4204D057
:1008E0002369934201D0012003E23948036823F0D1
:1008F000F8036169F82292FAA2F2B2FA82F201FADE
:1009000002F213430360236813F0080F00F08C8099
:10091000A369002B60D0012191FAA1F2B2FA82F210
:100920002C4B13449B001960FFF794FC05460223EF
:1009300093FAA3F293FAA3F293FAA3F2244A516A28
:1009400093FAA3F3B3FA83F303F01F03012202FA2D
:1009500003F30B4268D1FFF77DFC401B0228E6D968
:100960000320C6E11A48036823F0F8036169F822FE
:1009700092FAA2F2B2FA82F201FA02F2134303608F
:10098000C1E7012393FAA3F3B3FA83F303F184538A
:1009900003F584139B0000221A60FFF75BFC0546F9
:1009A000022393FAA3F30A4B1968022393FAA3F3E1
:1009B000B3FA83F303F01F03012202FA03F30B429D
:1009C000A1D0FFF747FC401B0228E9D9032090E1A2
:1009D0000010024020819010012292FAA2F2B2FA95
:1009E00082F2C04B13449B0000221A60FFF732FCD6
:1009F0000546022393FAA3F293FAA3F293FAA3F221
:100A0000B94A516A93FAA3F3B3FA83F303F01F03CD
:100A1000012202FA03F30B4206D0FFF71BFC401B36
:100A20000228E6D9032064E1236813F0040F00F0E4
:100A3000B380AD4BDB6913F0805F20D1AA4BDA693C
:100A400042F08052DA61DB6903F080530193019B2D
:100A50000125A64B1B6813F4807F12D0E368012B9D
:100A600023D073BB03F1804303F504331A6A22F0E9
:100A700001021A621A6A22F004021A621AE00025C0
:100A8000E7E79A4A136843F480731360FFF7E2FBC9
:100A90000646964B1B6813F4807FDFD1FFF7DAFB25
:100AA000801B6428F5D9032023E18F4A136A43F0A1
:100AB00001031362E368002B41D0FFF7CBFB06462E
:100AC0002BE0052B09D0884B1A6A22F001021A622A
:100AD0001A6A22F004021A62ECE7834B1A6A42F0A7
:100AE00004021A621A6A42F001021A62E2E77E4BBD
:100AF000196A022393FAA3F3B3FA83F303F01F03F3
:100B0000012202FA03F3194245D1FFF7A3FB801B30
:100B100041F28833984200F2E180022393FAA3F273
:100B200093FAA3F3B3FA83F35B0943F00203022BB6
:100B3000DDD0022393FAA3F36B4B596AD9E7FFF791
:100B400089FB064615E0684B196A022393FAA3F362
:100B5000B3FA83F303F01F03012202FA03F31942ED
:100B600019D0FFF777FB801B41F28833984200F2DF
:100B7000B780022393FAA3F293FAA3F3B3FA83F3B1
:100B80005B0943F00203022BDDD0022393FAA3F3A7
:100B9000554B596AD9E7B5BBE369002B00F0A88033
:100BA000514A526802F00C02082A00F0A480022B7D
:100BB0002FD04FF0807393FAA3F3B3FA83F303F1CA
:100BC000845303F584139B0000221A60FFF742FB55
:100BD00004464FF0007393FAA3F3434B19684FF0A8
:100BE000007393FAA3F3B3FA83F303F01F03012214
:100BF00002FA03F319426BD0FFF72CFB001B02280B
:100C0000E7D9032075E0384AD36923F08053D361D4
:100C1000C2E74FF0807393FAA3F3B3FA83F303F1BF
:100C2000845303F584139B0000221A60FFF712FB24
:100C300005464FF0007393FAA3F32B4B19684FF05E
:100C4000007393FAA3F3B3FA83F303F01F030122B3
:100C500002FA03F3194206D0FFF7FCFA401B022800
:100C6000E7D9032045E020494B6823F47413626AF6
:100C7000206A024313434B604FF0807393FAA3F34F
:100C8000B3FA83F303F1845303F584139B00012229
:100C90001A60FFF7DFFA04464FF0007393FAA3F3EC
:100CA000114B19684FF0007393FAA3F3B3FA83F36F
:100CB00003F01F03012202FA03F3194206D1FFF7E2
:100CC000C9FA001B0228E7D9032012E0002010E037
:100CD00000200EE00120704701200AE0032008E018
:100CE000032006E0208190100010024000700040B8
:100CF000002002B070BD0120FBE700BF10B4174B0D
:100D00005C6804F00C03082B26D104F470124FF435
:100D1000701393FAA3F3B3FA83F322FA03F310499F
:100D2000C85C0E4BDB6A03F00F030F2292FAA2F2AB
:100D3000B2FA82F2D3400B441A7C14F4803F05D1FE
:100D4000084B03FB00F05DF8044B7047064BB3FB08
:100D5000F2F300FB03F0F6E70348F4E7001002406B
:100D60002425000800093D0000127A00002800F048
:100D7000C08070B50446614B1B6803F007038B42CB
:100D80000CD25E4A136823F007030B431360136809
:100D900003F007038B4201D0012070BD236813F0DC
:100DA000020F06D0564A536823F0F003A0680343AD
:100DB00053600D46236813F0010F5AD06368012B6E
:100DC0002DD0022B40D0022292FAA2F24C4A106897
:100DD000022292FAA2F2B2FA82F202F01F0201217A
:100DE00001FA02F2104200F0868045494A6822F07A
:100DF000030213434B60FFF72DFA0646404B5B6836
:100E000003F00C036268B3EB820F32D0FFF722FAD3
:100E1000801B41F288339842F0D90320BDE74FF49C
:100E2000003292FAA2F2364A10684FF4003292FA77
:100E3000A2F2B2FA82F202F01F02012101FA02F2DA
:100E40000242D2D10120A8E74FF0007292FAA2F23A
:100E50002B4A10684FF0007292FAA2F2B2FA82F2B4
:100E600002F01F02012101FA02F21042BDD101205D
:100E700093E7224B1B6803F00703AB420CD91F4AD0
:100E8000136823F007032B431360136803F0070371
:100E9000AB4201D0012080E7236813F0040F06D095
:100EA000174A536823F4E063E1680B4353602368F7
:100EB00013F0080F07D0124A536823F460532169D6
:100EC00043EAC1035360FFF719FF0D4B5B6803F062
:100ED000F003F02292FAA2F2B2FA82F2D340094A67
:100EE000D35CD840084B18600F20FFF771F9002041
:100EF00053E70120704701204FE700BF0020024068
:100F0000001002406C2500080C000020F0B583B0F2
:100F10000446036813F4803F48D0934BDB6913F019
:100F2000805F40F0D580904BDA6942F08052DA6100
:100F3000DB6903F080530193019B01258B4B1B68F8
:100F400013F4807F00F0C680874B1B6A13F4407354
:100F500022D0626802F440729A421DD08248016A2F
:100F600021F440764FF4803393FAA3F2B2FA82F27E
:100F70007F4F3A4492004FF0010CC2F800C093FA40
:100F8000A3F3B3FA83F33B449B0000221A6006628A
:100F900011F0010F40F0B380734A136A23F44073D9
:100FA00061680B431362002D40F0D580236813F075
:100FB000010F06D06C4A136B23F00303A1680B43A7
:100FC0001363236813F0020F06D0674A136B23F4F0
:100FD0004033E1680B431363236813F0040F06D01A
:100FE000614A136B23F4402321690B431363236885
:100FF00013F0200F06D05C4A136B23F01003E16955
:101000000B431363236813F4003F06D0564A53681A
:1010100023F48003A16B0B435360236813F0400F4C
:1010200006D0514A136B23F02003216A0B4313634C
:10103000236813F0080F06D04B4A136B23F44013B8
:1010400061690B431363236813F0100F06D0464AFF
:10105000136B23F44003A1690B431363236813F458
:10106000007F06D0404A536823F40003E16A0B4333
:101070005360236813F0800F06D03B4AD36A23F4F1
:10108000F873616A0B43D362236813F4807F06D040
:10109000354AD36A23F47853A16A0B43D362236899
:1010A00013F4805F06D0304A136B23F48073216BF6
:1010B0000B431363236813F4005F53D02A4A136B66
:1010C00023F40073616B0B431363002003B0F0BD86
:1010D000002533E7254A136843F480731360FFF754
:1010E000B9F80646214B1B6813F4807F7FF42CAFC0
:1010F000FFF7B0F8801B6428F4D90320E6E7FFF778
:10110000A9F8064615E0184B196A022393FAA3F3CF
:10111000B3FA83F303F01F03012202FA03F30B4235
:101120007FF43AAFFFF796F8801B41F2883398427C
:1011300016D8022393FAA3F293FAA3F3B3FA83F334
:101140005B0943F00203022BDDD0022393FAA3F3E1
:10115000054B596AD9E7D36923F08053D36125E75A
:101160000320B3E70020B1E7001002400070004008
:1011700000819010002858D010B5044600238362E7
:1011800090F85D30002B45D0022384F85D30226852
:10119000136823F040031360E368B3F5E06F3ED9B2
:1011A0000022B3F5706F04D0B3F5E06F01D00021D9
:1011B000A162216B21B9B3F5E06F33D90223236318
:1011C0006368A1680B4321690B4361690B43A16903
:1011D00001F400710B43E1690B43216A0B43A06AE0
:1011E000216803430B60638B03F00403616A0B43C4
:1011F000616B0B43E1680B43216813434B6022682A
:10120000D36923F40063D36100202066012384F8AE
:101210005D3010BD80F85C3001F07AF8B4E74FF42F
:101220008052BEE701232363CAE701207047842868
:1012300001D0033070470020704708B500F0C8F9AE
:10124000002008BDF0B585B00F4644680568066902
:10125000B0F90800FFF7EBFF03AB019300903B46AA
:10126000B2B22946204600F081F9012802D1039844
:1012700005B0F0BD0020FBE708B5034600B9012327
:10128000184600F0E7FA002008BD08B500F08EFB14
:10129000012801D000F066FC08BD00F1080343609E
:1012A0004FF0FF328260C360036100230360704728
:1012B00000230361704743684B609A688A609A68AC
:1012C000516099600861036801330360704730B46E
:1012D0000D68B5F1FF3F02D000F1080202E002699B
:1012E00004E01A4653681C68AC42FAD953684B6054
:1012F00099608A605160086103680133036030BC03
:1013000070470369426881689160826841685160F2
:101310005A68824205D000220261186801381860BC
:10132000704782685A60F6E7074B9B6A1B6833B1C7
:10133000054B9A6AD268D2685268DA627047024BEB
:101340004FF0FF32DA6270472C00002010B50446DF
:10135000006B00F083FD204600F080FD10BD2DE9FC
:10136000F04780469946089D099F0A9C266B02F12A
:101370008042013A06EB820626F0070600230F2B77
:1013800007D8C85CE21882F83400CA5C0AB101339D
:10139000F5E7002384F84330062D00D90625E562E1
:1013A00065644FF0000AC4F848A0201DFFF780FFD5
:1013B00004F11800FFF77CFF2461C5F10705A56162
:1013C0006462C4F84CA084F850A04A4641463046B6
:1013D00000F030FB206007B13C60BDE8F087000002
:1013E00070B5002407E004EB840293001048184411
:1013F000FFF753FF0134062CF5D90E4C04F1BC065F
:101400003046FFF74AFF04F1D0052846FFF745FFB5
:1014100004F11400FFF741FF04F1E400FFF73DFF82
:101420002046FFF73AFFA662C4F8F85070BD00BF2F
:101430005C0000202C00002038B5054600F022FB9F
:10144000264BD3F8FC200132C3F8FC20D3F800313E
:1014500073B1224BD3F804318BB9204BD3F8003150
:10146000DA6AEB6A9A420AD81C4BC3F8005106E0CC
:101470001A4BC3F80051D3F8FC30012B2AD0174C7B
:10148000D4F808310133C4F80831EB6A01229A40DC
:10149000D4F80C110A43C4F80C2104F1300003EB1A
:1014A00083039A00291D1044FFF705FF00F00CFB91
:1014B000D4F804316BB1D4F80031DA6AEB6A9A429D
:1014C00007D2074B4FF080521A60BFF34F8FBFF324
:1014D0006F8F38BDFFF784FFD1E700BF2C000020DD
:1014E00004ED00E070B504460E461F4BD3F81051D2
:1014F000D3F800010430FFF704FF60B91A4BD3F8AA
:101500000021D16A012202FA01F1D3F80C2122EA6A
:101510000102C3F80C21B4F1FF3F12D02C44124B4E
:10152000D3F800315C60A54214D80F4DA86AD5F8F5
:1015300000110431FFF7CBFEEB6AA34212D9EC6233
:1015400010E0002EEAD00848D0F800110431FFF76F
:10155000B2FE07E0044BD3F8F800D3F800110431D1
:10156000FFF7B5FE70BD00BF2C0000202DE9F04351
:1015700085B00746884615469946900000F0E8FB7E
:10158000F8B10646542000F0E3FB0446A8B1066318
:10159000D4B10023039302940D9B01930C9B009301
:1015A0004B462A4641463846FFF7D9FE2046FFF70C
:1015B00043FF012005B0BDE8F083304600F04EFC4B
:1015C000E6E74FF0FF30F5E74FF0FF30F2E70000BD
:1015D00000B583B0174B0193002300938022164976
:1015E0001648FFF7C3FF012805D0B0F1FF3F17D021
:1015F00003B05DF804FB4FF0500383F31188BFF391
:101600006F8FBFF34F8F0E4B4FF0FF32DA62012224
:10161000C3F804210022C3F8102100F0CFFAE7E755
:101620004FF0500383F31188BFF36F8FBFF34F8FD9
:10163000FEE700BF4801002084250008F5180008D7
:101640002C000020034AD2F818310133C2F81831B7
:10165000704700BF2C0000202DE9F041404BD3F82B
:101660001831002B6CD13E4BD3F810510135C3F823
:101670001051CDB99B6A1B6843B14FF0500383F3FF
:101680001188BFF36F8FBFF34F8FFEE7344B9A6A19
:10169000D3F8F8109962C3F8F820D3F8202101326A
:1016A000C3F82021FFF740FE2D4BDB6AAB423DD94A
:1016B00000242B4AD2F80031DB6A03EB8303990044
:1016C0000A44136B012B42D9012440E00124244B2E
:1016D0009B6A1B6863B3224B9B6ADB68DE68736896
:1016E0009D422AD306F104084046FFF70AFEB36A7A
:1016F0001BB106F11800FFF704FEF36A01229A40BD
:10170000174FD7F80C110A43C7F80C2107F1300026
:1017100003EB83039A0041461044FFF7CCFDF26AC5
:10172000D7F80031DB6A9A42D0D2D0E70024CEE766
:101730000B4B4FF0FF32DA62BBE7094AD362B8E7DE
:10174000074AD2F824310133C2F824310024044B73
:10175000D3F8283103B101242046BDE8F08100BF51
:101760002C000020394BD3F8183143B94FF0500307
:1017700083F31188BFF36F8FBFF34F8FFEE770B510
:1017800000F080F9314BD3F81821013AC3F8182141
:10179000D3F81831002B54D12C4BD3F8FC3023B99B
:1017A000002400F091F9204670BD0024274B5B69AE
:1017B0002BB3264D2B6ADC6804F11800FFF7A1FD5E
:1017C000261D3046FFF79DFDE36A01229A40D5F8B9
:1017D0000C110A43C5F80C2105F1300003EB83031B
:1017E0009A0031461044FFF766FDE26AD5F80031F1
:1017F000DB6A9A42DAD30122C5F82821D6E70CB178
:10180000FFF792FD114BD3F8244164B1FFF724FF99
:1018100018B10E4B0122C3F82821013CF6D10B4B25
:101820000022C3F82421094BD3F828315BB1084BBF
:101830004FF080521A60BFF34F8FBFF36F8F0124B8
:10184000AFE70024ADE70024ABE700BF2C00002089
:1018500004ED00E010B5B0B104460F4BD3F81831D9
:1018600043B14FF0500383F31188BFF36F8FBFF381
:101870004F8FFEE7FFF7E6FE00212046FFF732FE1E
:10188000FFF770FF38B9054B4FF080521A60BFF375
:101890004F8FBFF36F8F10BD2C00002004ED00E0D0
:1018A00038B5134BD3F814310BB3FFF7CBFE104B05
:1018B000D3F8E440FFF756FF002CF2D000F0E2F836
:1018C0000B4CD4F8F030DD68281DFFF71AFDD4F872
:1018D000FC30013BC4F8FC30D4F81431013BC4F8AF
:1018E000143100F0F1F82846FFF730FDD9E738BD94
:1018F0002C00002008B5FFF7D3FF064B1B6B012B14
:10190000F9D9054B4FF080521A60BFF34F8FBFF3E8
:101910006F8FF0E72C00002004ED00E0224BD3F89D
:10192000183123B1204B0122C3F8282170471E4AE9
:101930000023C2F82831D2F80C31B3FA83F3DBB2BA
:10194000C3F11F0303EB830081000A44126B42B909
:101950004FF0500383F31188BFF36F8FBFF34F8FA6
:10196000FEE710B4104A9900CC18A0001044446B54
:101970006468446330321944880008300244944259
:101980000BD0094903EB83039A000A44536BDB68CD
:10199000C1F800315DF8044B7047616802481422B9
:1019A00002FB03025163ECE72C000020064BD3F846
:1019B00004313BB1044BD3F818310BB10020704710
:1019C00002207047012070472C0000200B4B1B6841
:1019D000B3F1FF3F08D04FF0500383F31188BFF3FA
:1019E0006F8FBFF34F8FFEE74FF0500383F31188E3
:1019F000BFF36F8FBFF34F8FFEE700BF08000020DB
:101A000006480068006880F3088862B661B6BFF3D4
:101A10004F8FBFF36F8F00DF00BF000008ED00E0C5
:101A2000DFF80C00016841F47001016070470000AC
:101A300088ED00E04FF0807340F8043C21F0010194
:101A400040F8081C054B40F80C3C40F8202C6FF087
:101A5000020340F8243C4438704700BFCD19000809
:101A6000074B19680868B0E8F04F80F30988BFF3A6
:101A70006F8F4FF0000080F311887047AFF3008044
:101A80002C0100204FF0500383F31188BFF36F8FB8
:101A9000BFF34F8F0A4A136801331360012B00D044
:101AA0007047084B1B6813F0FF0FF9D04FF050033D
:101AB00083F31188BFF36F8FBFF34F8FFEE700BF33
:101AC0000800002004ED00E0094B1B6843B94FF00B
:101AD000500383F31188BFF36F8FBFF34F8FFEE77F
:101AE000013B034A13600BB983F31188704700BFB1
:101AF00008000020000000000000000000000000BE
:101B0000EFF30980BFF36F8F154B1A681EF0100FAB
:101B100008BF20ED108A20E9F04F10604DF8043D19
:101B20004FF0500080F31188BFF34F8FBFF36F8FDA
:101B3000FFF7F4FE4FF0000080F3118808BC19682D
:101B40000868B0E8F04F1EF0100F08BFB0EC108A24
:101B500080F30988BFF36F8F704700BFAFF3008039
:101B60002C01002008B54FF0500383F31188BFF318
:101B70006F8FBFF34F8FFFF76FFD18B1034B4FF01F
:101B800080521A60002383F3118808BD04ED00E041
:101B9000064B1B68064AA2FB03239B09013B054A2F
:101BA0001360054B07221A60704700BF0C0000202D
:101BB000D34D621014E000E010E000E0314B1A68F1
:101BC000314B9A420DD02F4B1A68304B9A4211D1AB
:101BD0004FF0500383F31188BFF36F8FBFF34F8F24
:101BE000FEE74FF0500383F31188BFF36F8FBFF30D
:101BF0004F8FFEE700B583B0254B1A78D2B2019221
:101C0000FF221A701B78DBB28DF803309DF8033089
:101C100003F050031F4A1370072353609DF80330ED
:101C200013F0800F0AD01B4A5368013B53609DF8A4
:101C300003305B00DBB28DF80330EFE7154A5368E1
:101C40001B0203F4E0635360019BDBB2104A137084
:101C5000114B1A6842F470021A601A6842F070421E
:101C60001A60FFF795FF0D4B00221A60FFF7D8FEB0
:101C70000B4A136843F040431360FFF7C1FEFFF7C0
:101C8000A5FE00BF00ED00E071C20F4170C20F4120
:101C900000E400E05801002020ED00E008000020F2
:101CA00034EF00E0134A12F0070F20D0D11D21F0CD
:101CB0000701C1F5406313440A460E49C1F8002CE0
:101CC0000020C1F8040C1344083B23F00703C1F8BB
:101CD000083C58601860981A50601360C1F80C0CEA
:101CE000C1F8100C4FF00043C1F8143C70474FF49A
:101CF0004063E2E76001002010B4134B1A6882428F
:101D00001CD359685C18844203D14068014459606F
:101D1000184641684418A24214D10C4CD4F8084C1F
:101D2000A2420DD05268114441601A6812680260E4
:101D3000984200D018605DF8044B70471346DDE709
:101D40000460F5E70260F3E7600D00206001002009
:101D500070B50446FFF776FC3F4BD3F8083CC3B19F
:101D60003D4BD3F8143C1C426CD1ACB1083414F098
:101D7000070F11D024F00704083404F007035BB107
:101D80004FF0500383F31188BFF36F8FBFF34F8F72
:101D9000FEE7FFF787FFE3E7002C55D02E4BD3F883
:101DA000103CA34252D32C4BD3F8005C03F54063A4
:101DB00001E02B4615466A68A24202D22A68002A30
:101DC000F7D1254AD2F8082CAA4241D01E6808361D
:101DD0002A681A606B681B1B102B10D9281910F089
:101DE000070F08D04FF0500383F31188BFF36F8FB4
:101DF000BFF34F8FFEE743606C60FFF77DFF6968BC
:101E0000154AD2F8103C5B1AC2F8103CD2F80C2CE0
:101E1000934202D2104AC2F80C3C0F4BD3F8143C48
:101E20000B436B6000232B60FFF79CFC16F0070F41
:101E300010D04FF0500383F31188BFF36F8FBFF3BF
:101E40004F8FFEE70026EFE70026EDE70026EBE7E1
:101E50000026E9E7304670BD6001002098B338B530
:101E60000446A0F1080550F8042C1749D1F8141CB9
:101E70000A4208D14FF0500383F31188BFF36F8FEC
:101E8000BFF34F8FFEE750F8080C40B14FF05003FE
:101E900083F31188BFF36F8FBFF34F8FFEE722EA02
:101EA000010244F8042CFFF7CDFB54F8041C064A49
:101EB000D2F8103C0B44C2F8103C2846FFF71CFF38
:101EC000FFF750FC38BD70476001002070B58AB044
:101ED0000024059406940794089409942D4B5A699C
:101EE00042F400125A615A6902F400120092009AF8
:101EF0005A6942F400225A615A6902F4002201929E
:101F0000019A5A6942F480025A615A6902F48002C5
:101F10000292029A5A6942F400325A615A6902F4F2
:101F200000320392039A5A6942F480225A615B6933
:101F300003F480230493049B174D22464FF6087147
:101F40002846FEF7BAFA37230593144B06930794F5
:101F500005A92846FEF7E0F94FF608730593012618
:101F600006960794089405A92846FEF7D5F9059624
:101F70000694079405A94FF09040FEF7CDF9402351
:101F800005930694079405A90548FEF7C5F90AB01C
:101F900070BD00BF00100240001000480000121089
:101FA0000008004838B50D4C0D4B23600D4B6360A5
:101FB0000025A5600123E36025616561A561E561F8
:101FC00025622046FEF782FA29462046FEF7DCFA13
:101FD00029462046FEF706FB38BD00BF800D0020D5
:101FE000005400400E09002008B50E480E4B036057
:101FF0004FF482734360002383604FF44072C260E9
:10200000036143614FF4007282610822C26103627E
:10201000436283620721C16203634263FFF7AAF848
:1020200008BD00BFD00D00200030014008B50748B2
:10203000074B03600823436002238360036100238E
:1020400083610362FEF7FAFA08BD00BF340E002078
:10205000005C004008B50120FFF70EF9FBE7000027
:1020600038B5002408E04FF480713E48FEF72AFAA4
:102070009620FFF701F90134072C71DC072C3DD8BD
:1020800001A353F824F000BF67200008A92000082E
:10209000B5200008C1200008CD200008D920000884
:1020A000E5200008F12000084FF400712D48FEF7EC
:1020B00009FADDE74FF480612A48FEF703FAD7E713
:1020C0004FF400612748FEF7FDF9D1E74FF4805146
:1020D0002448FEF7F7F9CBE74FF400512148FEF70B
:1020E000F1F9C5E74FF480411E48FEF7EBF9BFE771
:1020F0004FF400411B48FEF7E5F9B9E7194D0022FE
:102100004FF480712846FEF7D8F900224FF4007191
:102110002846FEF7D2F900224FF480612846FEF7E8
:10212000CCF900224FF400612846FEF7C6F90022E0
:102130004FF480512846FEF7C0F900224FF40051B9
:102140002846FEF7BAF900224FF480412846FEF7F0
:10215000B4F900224FF400412846FEF7AEF987E7B4
:1021600038BD00BF0010004808B502E06420FFF74A
:1021700083F840210348FEF799F90028F6D0FFF7CD
:102180006FFFF3E70008004870B59EB00024169476
:1021900017941A940F9410941194129413943C224F
:1021A0002146684600F0AAF9032314934FF4A023B4
:1021B0001593012518951023199302261B964FF4A9
:1021C00080331C934FF480131D9314A8FEF78AFAF2
:1021D0000F230F93109611944FF48063129313946E
:1021E00029460FA8FEF7C2FD054B009307944FF454
:1021F00080030E936846FEF789FE1EB070BD00BFD7
:102200002000020000B58BB0FEF706F8FFF7BCFF18
:10221000FFF75CFEFFF7C6FEFFF7E6FEFFF706FFDF
:102220000D4C05AD26460FCE0FC533682B6000213F
:1022300005A8FFF707F8094B18606D4614340FCC5A
:102240000FC523682B6000216846FEF7FBFF044B97
:102250001860FEF7F2FFFEE7442500087C0D002021
:10226000CC0D002000B583B00D4B9A6942F00102FD
:102270009A619A6902F001020092009ADA6942F0CA
:102280008052DA61DB6903F080530193019B0022E5
:102290000F216FF00100FDF7F5FF03B05DF804FBBF
:1022A0000010024010B588B00023039304930593F7
:1022B000069307930268134B9A4201D008B010BDF1
:1022C000114C636943F480236361636903F48023E1
:1022D0000193019BC02303931223049301230593CD
:1022E000032306930423079303A90848FEF714F871
:1022F000E36943F40013E361E36903F40013029319
:10230000029BDBE70054004000100240000400483C
:1023100000B589B0002303930493059306930793B4
:102320000268144B9A4202D009B05DF804FB03F531
:1023300060439A6942F480529A619A6902F4805229
:102340000192019A5A6942F400325A615B6903F4BE
:1023500000330293029BE02303930223049303239D
:1023600006930523079303A94FF09040FDF7D4FF90
:10237000DAE700BF0030014010B588B000230393B6
:1023800004930593069307930268134B9A4201D076
:1023900008B010BD114C636943F400336361636995
:1023A00003F400330193019B4FF4C05303930223C2
:1023B0000493032306930E23079303A94FF0904041
:1023C000FDF7AAFFE36943F40003E361E36903F463
:1023D00000030293029BDBE7005C00400010024018
:1023E0007047FEE7FEE7FEE7FEE7704708B5FDF73A
:1023F00025FFFEF74AFF08BD1549D1F8883043F4A0
:102400007003C1F88830134B1A6842F001021A6059
:102410005868114A02405A601A6822F0847222F405
:1024200080321A601A6822F480221A605A6822F4F4
:10243000FE025A60DA6A22F00F02DA62186B074A6B
:1024400002401A6300229A604FF000638B6070476D
:1024500000ED00E0001002400CC07FF8CCFC00FF53
:10246000DFF834D0002103E00C4B5B5843500431BB
:102470000B480C4B42189A42F6D30B4A02E0002359
:1024800042F8043B094B9A42F9D3FFF7B5FF00F03D
:1024900011F8FFF7B7FEFEE700A00020AC2500080A
:1024A000000000201000002010000020DC1100209F
:1024B000FEE7000070B50D4E0D4CA41BA4100025C6
:1024C000A54209D10B4E0C4C00F020F8A41BA4101F
:1024D0000025A54205D170BD56F825309847013535
:1024E000EEE756F8253098470135F2E7A4250008B5
:1024F000A4250008A4250008A825000802440346D6
:10250000934200D1704703F8011BF9E7F8B500BF0B
:10251000F8BC08BC9E467047F8B500BFF8BC08BCC4
:042520009E4670471C
:1025240002030405060708090A0B0C0D0E0F101010
:102534000102030405060708090A0B0C0D0E0F100F
:102544009825000855200008000000000000000045
:10255400800000008C2500086921000800000000AC
:1025640000000000800000000000000000000000E7
:102574000102030406070809000000000102030425
:1025840049444C45000000006D795461736B30324E
:102594000000000064656661756C745461736B00BF
:0425A400B501000875
:0425A8009101000895
:1025AC000100000010000000AAAAAAAA00127A00DA
:04000005080024616A
:00000001FF
