:020000040800F2
:10000000008001202D3000087D2F00087F2F000880
:10001000812F0008832F0008852F000800000000B2
:100020000000000000000000000000003126000871
:10003000872F000800000000D1260008892F000843
:100040007D3000087D3000087D3000087D300008DC
:100050007D3000087D3000087D3000087D300008CC
:100060007D3000087D3000087D3000087D300008BC
:100070007D3000087D3000087D3000087D300008AC
:100080007D3000087D300008952F0008000000003A
:100090000000000000000000000000007D300008AB
:1000A0007D3000087D3000087D3000087D3000087C
:1000B0007D3000087D3000087D3000087D3000086C
:1000C0007D3000087D3000087D3000087D3000085C
:1000D0007D3000087D3000087D3000080000000001
:1000E0007D3000087D3000087D30000800000000F1
:1000F0000000000000000000000000007D3000084B
:10010000000000007D3000087D3000087D300008D0
:1001100000000000000000000000000000000000DF
:100120007D3000087D3000087D3000087D300008FB
:100130007D3000080000000000000000000000000A
:100140000000000000000000000000007D300008FA
:100150007D3000087D3000087D3000087D300008CB
:100160007D3000087D300008000000000000000025
:10017000000000000000000000000000000000007F
:10018000000000007D3000080000000000000000BA
:040190007D300008B6
:1001A00010B5054C237833B9044B13B10448AFF3B1
:1001B00000800123237010BD7400002000000000A7
:1001C000F438000808B5034B1BB103490348AFF3EB
:1001D000008008BD0000000078000020F43800080E
:1001E00053B94AB9002908BF00281CBF4FF0FF319E
:1001F0004FF0FF3000F072B9ADF1080C6DE904CE9C
:1002000000F006F8DDF804E0DDE9022304B07047F1
:100210002DE9F047089E04468846002B4BD18A42C0
:10022000154667D9B2FA82F24AB1C2F1200701FA43
:1002300002F320FA07F7954047EA030894404FEA93
:10024000154E230CB8FBFEF71FFA85FC0EFB178832
:1002500043EA084307FB0CF1994209D9EB1807F16F
:10026000FF3080F01B81994240F21881023F2B44FD
:100270005B1AA4B2B3FBFEF00EFB103344EA034456
:1002800000FB0CFCA44509D92C1900F1FF3380F0C8
:100290000781A44540F2048102382C4440EA07401B
:1002A000A4EB0C0400271EB1D4400023C6E9004390
:1002B0003946BDE8F0878B4209D9002E00F0EB806B
:1002C0000027C6E9000138463946BDE8F087B3FA91
:1002D00083F7002F47D18B4202D3824200F2FA808B
:1002E000841A61EB030301209846002EE0D0C6E992
:1002F0000048DDE702B9FFDEB2FA82F2002A40F0E0
:100300008F80491B4FEA154E1FFA85F80127B1FB74
:10031000FEFC230C0EFB1C1143EA014308FB0CF10D
:10032000994207D9EB180CF1FF3002D2994200F242
:10033000CD808446591AA3B2B1FBFEF00EFB101417
:1003400043EA044408FB00F8A04507D92C1900F142
:10035000FF3302D2A04500F2B6801846A4EB080491
:1003600040EA0C409FE7C7F1200CBB4022FA0CFE8C
:100370004EEA030E01FA07F420FA0CF521FA0CF309
:100380004FEA1E482543B3FBF8F92C0C08FB193340
:100390001FFA8EFA44EA034309FB0AF49C4202FA6C
:1003A00007F200FA07F10BD91EEB030309F1FF3046
:1003B00080F087809C4240F28480A9F10209734456
:1003C0001B1BADB2B3FBF8F008FB103345EA034446
:1003D00000FB0AFAA24508D91EEB040400F1FF3322
:1003E0006BD2A24569D90238744440EA0940A0FBA7
:1003F0000289A4EB0A044C45C2464B4654D351D063
:10040000002E69D0B1EB0A0564EB030404FA0CFC7E
:10041000FD40FC404CEA0505C6E90054002747E7CB
:10042000C2F1200320FA03F7954001FA02F021FA05
:1004300003F34FEA154E3843010CB3FBFEF71FFAE6
:1004400085F80EFB173341EA034107FB08F38B42A3
:1004500004FA02F407D9691807F1FF3C2FD28B4246
:100460002DD9023F2944CB1A81B2B3FBFEF00EFB1B
:10047000103341EA034100FB08F38B4207D96918A6
:1004800000F1FF3C17D28B4215D902382944C91A12
:1004900040EA07473BE73746304609E70746E7E6C5
:1004A0001846FBE64145ABD2B8EB020A69EB0E02F7
:1004B00001381346A4E76046E9E7184695E7674622
:1004C000D1E781467CE702382C4447E7ACF1020CC7
:1004D0002B442FE7384608E73746E9E6704700BF68
:1004E000034613F8012B002AFBD1181A0138704774
:1004F00001F0FF01102A2BDB10F0070F08D010F8D5
:10050000013B013A8B422DD010F0070F42B3F6D1D8
:10051000F0B441EA012141EA014122F007047FF0F1
:1005200000070023F0E80256083C85EA010586EA48
:10053000010685FA47F5A3FA87F586FA47F6A5FA84
:1005400087F68EB9EED1F0BC01F0FF0102F0070290
:1005500032B110F8013B013A83EA010313B1F8D13B
:100560000020704701387047002D06BF354603381C
:10057000073815F0010F07D1013015F4807F02BF55
:10058000013015F4C03F0130F0BC0138704700BFA6
:1005900010B504460E4B18784FF47A73B3FBF0F3A2
:1005A0000C4A1068B0FBF3F000F0AAFB68B90F2CFE
:1005B00001D901200AE0002221464FF0FF3000F06F
:1005C0005DFB034B5C60002000E0012010BD00BF1C
:1005D000000000200C00002008B50B4B1A6842F404
:1005E00000721A601A6842F480621A601A6842F453
:1005F00080721A60032000F02FFB0F20FFF7C8FF66
:1006000002F0E2FB002008BD003C0240034A1168F2
:10061000034B1B780B441360704700BFEC3D002078
:1006200000000020014B1868704700BFEC3D00201F
:100630004A4B5A6822F440325A605A6841680A4369
:100640005A600268536823F48073536002685368E9
:10065000016943EA012353600268536823F0407341
:1006600053600268536881680B4353600268936863
:1006700023F40063936002689368C1680B4393603E
:10068000826A374B9A424BD00268936823F07063BA
:10069000936002689368816A0B4393600268936871
:1006A00023F04053936002689368C16A0B439360E0
:1006B0000268936823F00203936002689368017EE6
:1006C00043EA4103936090F82030002B33D1026855
:1006D000536823F4006353600268D36A23F4700301
:1006E000D3620168CB6AC269013A43EA0253CB6222
:1006F0000268936823F4007393600268936890F82B
:10070000301043EA412393600268936823F48063C6
:10071000936002689368416943EA8123936070475C
:100720000268936823F0706393600268936823F013
:1007300040539360BCE70268536843F4006353601E
:100740000268536823F46043536001684B68426A4F
:10075000013A43EA42334B60BEE700BF0023014049
:100760000100000F38B310B50446036C43B1236C8D
:1007700013F0100F0BD00120002384F83C3010BD83
:1007800002F044FB0023636484F83C30EFE7236C01
:1007900023F4885323F0020343F00203236420462A
:1007A000FFF746FF00206064236C23F0030343F04F
:1007B00001032364E0E701207047000082B00023BA
:1007C000019390F83C30012B63D0012380F83C303A
:1007D00003689A6812F0010F13D19A6842F001027F
:1007E0009A60304B1B68304AA2FB03239B0C03EB3F
:1007F0004303019302E0019B013B0193019B002B0A
:10080000F9D10268936813F0010F44D0036C23F40C
:10081000E06323F0010343F480730364536813F42B
:10082000806F05D0036C23F4405343F4805303647A
:10083000036C13F4805F19D0436C23F00603436408
:10084000002380F83C306FF022031360174B5B6885
:1008500013F01F0F0DD103689A6812F0405F1DD18D
:100860009A6842F080429A60002015E000234364B9
:10087000E6E703680E4A934201D000200CE09A6834
:1008800012F0405F0CD19A6842F080429A600020DA
:1008900002E0022000E0002002B070470020FBE7E9
:1008A0000020F9E70C00002083DE1B4300230140F9
:1008B0000020014003689A6812F4806F03D09B689F
:1008C00013F4807F1CD170B50D460446FFF7AAFED5
:1008D000064623681A6812F0020F1AD1B5F1FF3FDD
:1008E000F7D025B1FFF79EFE801BA842F1D9236CFB
:1008F00043F004032364002384F83C3003202DE0FC
:10090000036C43F020030364002380F83C30012093
:1009100070476FF012021A60236C43F40073236473
:1009200023689A6812F0405F17D1227EBAB9DA6A5A
:1009300012F4700F03D09B6813F4806F11D1236CF5
:1009400023F480732364236C13F4805F0BD1236C36
:1009500043F001032364002000E0002070BD00206C
:10096000FCE70020FAE70020F8E70368D86C70473E
:1009700070477047704738B504460268116853687D
:1009800011F0020F2FD003F0200363B3036C13F0B8
:10099000100F03D1036C43F400730364936813F0E6
:1009A000405F19D1237EBBB9D36A13F4700F03D013
:1009B000936813F4806F0FD1536823F020035360C2
:1009C000236C23F480732364236C13F4805F03D1BE
:1009D000236C43F0010323642046FFF7C9FF23681B
:1009E0006FF012021A60236819685A6802F08002D8
:1009F00011F0040F36D0002A34D0226C12F0100F00
:100A000003D1226C42F4005222649A6812F4401F0F
:100A100021D19A6B12F4401F03D09A6812F4806FB0
:100A200019D15A6812F4806F15D19A6812F0405F9C
:100A300011D1227E7AB95A6822F080025A60236C62
:100A400023F480532364236C13F4807F03D1236C3D
:100A500043F001032364204600F0FCF823686FF0A4
:100A60000C021A6022681168536803F0400311F009
:100A7000010F04D01BB1136813F0010F09D12268D4
:100A80001168536803F0806311F0200F00D063B940
:100A900038BD236C43F4803323642046FFF769FF9D
:100AA00023686FF001021A60E9E7636C43F0020308
:100AB00063646FF0200515602046FFF75BFF236835
:100AC0001D60E5E730B482B00023019390F83C301C
:100AD000012B00F0B780012380F83C300B68092B14
:100AE0003ED90568EA689BB203EB43031E3B07242B
:100AF00004FA03F322EA0303EB600568EA688C68F2
:100B00000B8803EB43031E3B04FA03F31343EB6030
:100B10004B68062B3AD805686A6B03EB8303053BE9
:100B20001F2404FA03F322EA03036B6305686A6B6C
:100B30004B6803EB8303053B0C8804FA03F3134370
:100B40006B630268404B9A4250D002683E4B9A4217
:100B500055D0002380F83C30184602B030BC7047B6
:100B600005682A699BB203EB4303072404FA03F3E5
:100B700022EA03032B6105682A698C680B8803EB62
:100B8000430304FA03F313432B61C1E70C2B16D87C
:100B900005682A6B03EB8303233B1F2404FA03F34A
:100BA00022EA03032B6305682A6B4B6803EB83037C
:100BB000233B0C8804FA03F313432B63C1E7056856
:100BC000EA6A03EB8303413B1F2404FA03F322EA9E
:100BD0000303EB620568EA6A4B6803EB8303413B5E
:100BE0000C8804FA03F31343EB62AAE70B68122B99
:100BF000ABD1164A536843F480035360A5E70B68F2
:100C0000103B012BA5D8114A536843F400035360ED
:100C10000B68102B9DD10E4B1B6802F1467202F53A
:100C20002E3202F28332A2FB03239B0C03EB8303DD
:100C30005A00019202E0019B013B0193019B002BB2
:100C4000F9D186E7022088E7002001400023014017
:100C50000C00002070470000074AD36823F4E063CB
:100C60001B041B0C000200F4E060184340F0BF605E
:100C700040F40030D060704700ED00E030B4174B16
:100C8000DB68C3F30223C3F10704042C28BF042448
:100C90001D1D062D18D9033B4FF0FF3505FA04F44E
:100CA00021EA0401994005FA03F322EA03031943F8
:100CB00000280BDB0901C9B200F1604000F561407A
:100CC00080F8001330BC70470023E5E700F00F0008
:100CD0000901C9B2024B1954F4E700BF00ED00E06E
:100CE00014ED00E0002807DB00F01F02400901239B
:100CF0009340024A42F82030704700BF00E100E014
:100D00000138B0F1807F0AD2064B5860064AF021C4
:100D100082F823100020986007221A607047012093
:100D2000704700BF10E000E000ED00E000230F2B53
:100D300000F2C580F0B482B039E0042200E0002265
:100D4000B2403A4302345E4E46F824205D4A1468AD
:100D5000EA4302EA04064F6817F4803F01D045EAEF
:100D60000406584C2660646802EA04064F6817F4CB
:100D7000003F01D045EA0406524C6660A46802EACE
:100D800004064F6817F4801F01D045EA04064D4C55
:100D9000A660E46822404E6816F4001F01D045EAC0
:100DA0000402484CE26001330F2B00F285800122DF
:100DB0009A400C6804EA0205AA42F4D14C68022C5D
:100DC00001D0122C10D1DE08083650F826C003F0EE
:100DD0000704A7000F24BC402CEA040C0C69BC409B
:100DE00044EA0C0440F8264004685F000326BE4035
:100DF000F64306EA040C4C6804F00304BC4044EAE1
:100E00000C0404604C6804F1FF3CBCF1010F03D9F1
:100E1000112C01D0122C10D1846806EA040CCC6885
:100E2000BC4044EA0C048460446824EA02024C6832
:100E3000C4F300149C4014434460C26816408A689E
:100E4000BA403243C2604A6812F0805FABD00022E1
:100E500001921D4A546C44F480445464526C02F470
:100E600080420192019A9C08A61C154A52F82670ED
:100E700003F0030296000F22B24027EA0207134A4A
:100E800090423FF45CAF02F5806290420ED002F5D2
:100E9000806290420CD002F5806290420AD002F546
:100EA000806290423FF449AF072249E7012247E7B9
:100EB000022245E7032243E702B0F0BC70477047C7
:100EC00000380140003C0140003802400000024070
:100ED00012B909048161704781617047002800F0F0
:100EE000BB8170B582B00446036813F0010F3BD09C
:100EF000A74B9B6803F00C03042B2CD0A44B9B68DE
:100F000003F00C03082B21D06368B3F5803F4FD06A
:100F1000B3F5A02F52D09E4B1A6822F480321A608B
:100F20001A6822F480221A606368002B50D0FFF701
:100F300079FB0546964B1B6813F4003F14D1FFF76D
:100F400071FB401B6428F5D903208AE1904B5B6854
:100F500013F4800FD8D08E4B1B6813F4003F03D0DE
:100F60006368002B00F07A81236813F0020F55D0DC
:100F7000874B9B6813F00C0F3ED0854B9B6803F0AA
:100F80000C03082B33D0E368002B68D0814B01227F
:100F90001A60FFF747FB05467D4B1B6813F0020FF5
:100FA00054D1FFF73FFB401B0228F5D9032058E13D
:100FB000774A136843F480331360B5E7744B1A68BB
:100FC00042F480221A601A6842F480321A60ABE759
:100FD000FFF728FB05466E4B1B6813F4003FC3D098
:100FE000FFF720FB401B6428F5D9032039E1684B4B
:100FF0005B6813F4800FC6D1654B1B6813F0020FBA
:1010000004D0E368012B01D001202AE1604A136873
:1010100023F0F803216943EAC1031360236813F046
:10102000080F40D0636963B35B4B01221A60FFF77E
:10103000F9FA0546564B5B6F13F0020F33D1FFF7F9
:10104000F1FA401B0228F5D903200AE1504A13683F
:1010500023F0F803216943EAC1031360DEE74D4B37
:1010600000221A60FFF7DEFA0546494B1B6813F0B1
:10107000020FD3D0FFF7D6FA401B0228F5D9032080
:10108000EFE0454B00221A60FFF7CCFA0546404BD3
:101090005B6F13F0020F06D0FFF7C4FA401B022863
:1010A000F5D90320DDE0236813F0040F79D0384B25
:1010B0001B6C13F0805F33D100230193344B1A6C07
:1010C00042F080521A641B6C03F080530193019B21
:1010D0000125324B1B6813F4807F23D0A368012BBA
:1010E00034D0052B38D02A4B1A6F22F001021A6730
:1010F0001A6F22F004021A67A368002B36D0FFF79C
:1011000091FA0646224B1B6F13F0020F48D1FFF7EE
:1011100089FA801B41F288339842F3D90320A0E07A
:101120000025D6E71D4A136843F480731360FFF768
:1011300079FA0646194B1B6813F4807FCED1FFF76E
:1011400071FA801B0228F5D903208AE0104A136F38
:1011500043F001031367CFE70D4B1A6F42F004020F
:101160001A671A6F42F001021A67C5E7FFF75AFAC9
:101170000646074B1B6F13F0020F11D0FFF752FA10
:10118000801B41F288339842F3D9032069E000BF05
:101190000038024000004742800E47420070004085
:1011A000E5B9A369002B5BD0304A926802F00C02CB
:1011B000082A58D0022B17D02D4B00221A60FFF7B7
:1011C00031FA0446294B1B6813F0007F42D0FFF729
:1011D00029FA001B0228F5D9032042E0234A136CA8
:1011E00023F080531364DCE7214B00221A60FFF7E1
:1011F00019FA05461D4B1B6813F0007F06D0FFF758
:1012000011FA401B0228F5D903202AE0E369226A7B
:101210001343626A43EA8213A26A5208013A43EA1C
:101220000243E26A43EA0263104A5360104B012210
:101230001A60FFF7F7F904460C4B1B6813F0007FA8
:1012400006D1FFF7EFF9001B0228F5D9032008E0CB
:10125000002006E0002004E001207047012000E0AB
:10126000002002B070BD0120FBE700BF0038024043
:1012700060004742324B9B6803F00C03042B5CD0A8
:10128000082B01D02F4870472DE9F04B2C4B5A68A2
:1012900002F03F025B6813F4800F2BD0284B5B6891
:1012A000C3F388131E4600275C010025E41A65EB92
:1012B0000705A90141EA9461A001001B61EB05014A
:1012C000CB0043EA5073C400A01943EB07014B0263
:1012D00043EAD0534402204619460023FEF780FF1C
:1012E000174B5B68C3F3014301335B00B0FBF3F0C2
:1012F000BDE8F08B124B5B68C3F388131E460027D2
:101300005C010025E41A65EB0705A90141EA946137
:10131000A001001B61EB0501CB0043EA5073C40040
:10132000A01943EB07018B0243EA90538402204645
:1013300019460023FEF754FFD2E70348704700BF69
:10134000003802400024F40000127A00002800F067
:101350009D8070B504464F4B1B6803F00F038B4212
:1013600009D2CBB24B4A1370136803F00F038B42C0
:1013700001D0012070BD236813F0020F17D013F0C5
:10138000040F04D0444A936843F4E0539360236805
:1013900013F0080F04D0404A936843F4604393600D
:1013A0003D4A936823F0F003A068034393600D4621
:1013B000236813F0010F32D06368012B21D09A1EED
:1013C000012A25D9344A126812F0020F60D032493E
:1013D0008A6822F0030213438B60FFF723F9064665
:1013E0002D4B9B6803F00C036268B3EB820F16D0A1
:1013F000FFF718F9801B41F288339842F0D9032097
:10140000B8E7254A126812F4003FE0D10120B1E7A5
:10141000214A126812F0007FD9D10120AAE71D4BA2
:101420001B6803F00F03AB4209D9EAB2194B1A70DB
:101430001B6803F00F03AB4201D001209AE7236839
:1014400013F0040F06D0144A936823F4E053E168C4
:101450000B439360236813F0080F07D00E4A93687C
:1014600023F46043216943EAC1039360FFF702FF5D
:10147000094B9B68C3F30313084AD35CD840084B5D
:1014800018600F20FFF784F8002073E701207047F1
:1014900001206FE7003C024000380240203900087C
:1014A0000C000020014B1868704700BF0C000020A2
:1014B00008B5FFF7F7FF044B9B68C3F38223034A89
:1014C000D35CD84008BD00BF003802403039000866
:1014D00008B5FFF7E7FF044B9B68C3F34233034AA9
:1014E000D35CD84008BD00BF003802403039000846
:1014F00070B4036A23F001030362036A42688469DB
:1015000024F073040D6845EA040623F002048B6896
:1015100023430D4DA84209D00B4DA8420DD0426087
:1015200086614A684263036270BC704723F0080317
:10153000CC68234323F00403EEE722F440724C69A5
:1015400014438A692243EAE70000014030B4036A89
:1015500023F480730362036A4268C46924F073044D
:101560000D682C4323F400738D6843EA05230F4D67
:10157000A84209D00D4DA8420ED04260C4614A680D
:10158000C263036230BC704723F40063CD6843EA52
:10159000052323F48063EDE722F440524D6942EACB
:1015A00005128D6942EA0512E7E700BF000001401D
:1015B00030B4036A23F480530362036A4468C26947
:1015C00022F4E6420D6842EA052223F400538D68B6
:1015D00043EA0533074DA84206D04460C2614A6819
:1015E0000264036230BC704724F480444D6944EACD
:1015F0008514F2E700000140022380F83D300268C4
:10160000936803F00703062B03D0136843F001032C
:101610001360012380F83D30002070470368254A9D
:1016200090420ED0B0F1804F0BD0A2F57C42904298
:1016300007D002F58062904203D002F580629042AA
:1016400003D123F070034A6813431A4A90421AD018
:10165000B0F1804F17D0A2F57C42904213D002F532
:10166000806290420FD002F5806290420BD002F56A
:101670009A32904207D002F58062904203D002F580
:101680008062904203D123F44073CA68134323F06D
:1016900080034A69134303608B68C3620B688362EB
:1016A000044B984202D00123436170470B690363E6
:1016B000F9E700BF00000140A8B110B5044690F85A
:1016C0003D305BB1022384F83D30211D2068FFF7D7
:1016D000A5FF012384F83D30002010BD80F83C3088
:1016E00001F0D0FBEEE701207047000030B4036A40
:1016F00023F010030362036A4468826922F4E6421D
:101700000D6842EA052223F020038D6843EA0513A1
:101710000E4DA84209D00D4DA8420ED04460826102
:101720004A688263036230BC704723F08003CD684F
:1017300043EA051323F04003EDE724F440644D69C8
:1017400044EA85048D6944EA8504E7E70000014026
:1017500038B590F83C30012B66D00D460446012385
:1017600080F83C30022380F83D300C2A1AD8DFE89C
:1017700002F00719191920191919341919194700F4
:101780000068FFF7B5FE2268936943F00803936190
:101790002268936923F0040393612268936929699D
:1017A0000B439361012384F83D30002084F83C0012
:1017B00038BD0068FFF79AFF2268936943F400631D
:1017C00093612268936923F480639361226893692B
:1017D000296943EA01239361E4E70068FFF7B6FE55
:1017E0002268D36943F00803D3612268D36923F0E8
:1017F0000403D3612268D36929690B43D361D1E71C
:101800000068FFF7D5FE2268D36943F40063D36113
:101810002268D36923F48063D3612268D36929697C
:1018200043EA0123D361BDE70220C1E710B401F010
:101830001F01012303FA01F4036A23EA040303628C
:10184000036A8A40134303625DF8044B704700004B
:1018500010B5044601220068FFF7E8FF23680A4A32
:1018600093420BD02268936803F00703062B03D042
:10187000136843F001031360002010BD5A6C42F45A
:1018800000425A64EEE700BF0000014090F83C308F
:10189000012B1CD070B4012680F83C60022380F834
:1018A0003D3002685568936825F070050C682C433C
:1018B00023F080054B682B4354600268936080F8E6
:1018C0003D60002380F83C30184670BC7047022011
:1018D000704790F83C30012B22D0012380F83C3037
:1018E000CB6823F440738A68134323F480634A6807
:1018F000134323F400630A68134323F480530A69F3
:10190000134323F400534A69134323F48043CA6901
:10191000134302685364002380F83C301846704734
:10192000022070472DE9F84304460268136923F446
:101930004053C1680B4313618368026913434269D2
:101940001343C2691A430168CB6823F4164323F09A
:101950000C031343CB600268536923F4407381691D
:101960000B435361C369B3F5004F60D00368B84AB5
:10197000934200F0148102F58062934200F00F81DF
:10198000FFF796FD00EB800000EB80006568AD007E
:10199000B0FBF5F5AF4FA7FB05356D092E01FFF73D
:1019A00087FD00EB800000EB80006568AD00B0FBB8
:1019B000F5F9FFF77DFD00EB800000EB8000656826
:1019C000AD00B0FBF5F5A7FB05356D094FF06408D8
:1019D00008FB15952D013235A7FB05356D0905F07E
:1019E000F0053544FFF764FD00EB800000EB80005C
:1019F0006668B600B0FBF6F6FFF75AFD00EB800014
:101A000000EB800063689B00B0FBF3F0A7FB0030A5
:101A1000400908FB10684FEA081808F13208A7FBD4
:101A20000837C7F3431723682F449F600DE103680D
:101A3000874A93425BD002F58062934257D0FFF70A
:101A400037FD00EB800000EB800065686D00B0FBA7
:101A5000F5F5804FA7FB05356D092E01FFF728FD31
:101A600000EB800000EB800065686D00B0FBF5F9CD
:101A7000FFF71EFD00EB800000EB800065686D0045
:101A8000B0FBF5F5A7FB05356D094FF0640808FBC1
:101A90001595ED003235A7FB05356D096D0005F490
:101AA000F8753544FFF704FD00EB800000EB800083
:101AB00066687600B0FBF6F6FFF7FAFC00EB8000F4
:101AC00000EB800063685B00B0FBF3F3A7FB03232C
:101AD0005B0908FB13684FEAC80808F13208A7FB46
:101AE0000837C7F3421723682F449F60ADE0FFF724
:101AF000EFFC00EB800000EB800065686D00B0FB40
:101B0000F5F5544FA7FB05356D092E01FFF7E0FCF5
:101B100000EB800000EB800065686D00B0FBF5F91C
:101B2000FFF7D6FC00EB800000EB800065686D00DD
:101B3000B0FBF5F5A7FB05356D094FF0640808FB10
:101B40001595ED003235A7FB05356D096D0005F4DF
:101B5000F8753544FFF7BCFC00EB800000EB80001B
:101B600066687600B0FBF6F6FFF7B2FC00EB80008B
:101B700000EB800063685B00B0FBF3F3A7FB03237B
:101B80005B0908FB13684FEAC80808F13208A7FB95
:101B90000837C7F3421723682F449F6055E0FFF7CB
:101BA00097FC00EB800000EB80006568AD00B0FBA7
:101BB000F5F5284FA7FB05356D092E01FFF788FCC9
:101BC00000EB800000EB80006568AD00B0FBF5F92C
:101BD000FFF77EFC00EB800000EB80006568AD0045
:101BE000B0FBF5F5A7FB05356D094FF0640808FB60
:101BF00015952D013235A7FB05356D0905F0F0056A
:101C00003544FFF765FC00EB800000EB8000666860
:101C1000B600B0FBF6F6FFF75BFC00EB800000EBD4
:101C2000800063689B00B0FBF3F0A7FB0030400925
:101C300008FB10684FEA081808F13208A7FB0837BC
:101C4000C7F3431723682F449F60BDE8F88300BFA4
:101C5000001001401F85EB512DE9F04105460F466C
:101C600016469846069C2B681B6837EA03030CBF90
:101C700001230023B3421DD1B4F1FF3FF3D02CB1B7
:101C8000FEF7D0FCA0EB0800A042ECD92A68D3688C
:101C900023F4D073D3602A68536923F0010353619E
:101CA000202385F8393085F83A30002385F838301C
:101CB000032000E00020BDE8F08158B310B50446D1
:101CC00090F839300BB3242384F839302268D36874
:101CD00023F40053D3602046FFF724FE22681369E3
:101CE00023F4904313612268536923F02A0353615C
:101CF0002268D36843F40053D3600020E0632023BC
:101D000084F8393084F83A3010BD80F8383001F06A
:101D1000FFF8D8E7012070472DE9F04182B01E4658
:101D200090F83930DBB2202B55D104460D46904651
:101D3000002955D0002A55D090F83830012B53D0C7
:101D4000012380F838300023C363212380F8393021
:101D5000FEF768FC0746A4F82480A4F8268010E06B
:101D600000963B46002280212046FFF775FF0028A1
:101D70003CD12B882268C3F3080353602369C3B99D
:101D80000235E38C9BB2B3B1E38C013B9BB2E3849D
:101D9000A368B3F5805FE3D000963B460022802124
:101DA0002046FFF759FF18BB2A7823685A6001358F
:101DB000E7E70135E5E700963B4600224021204653
:101DC000FFF74AFF0346A8B9202284F839200022F1
:101DD00084F8382000E00223184602B0BDE8F08104
:101DE0000123F9E70123F7E70223F5E70323F3E7EC
:101DF0000323F1E70323EFE7842801D00330704782
:101E00000020704708B500F0FFF9002008BDF0B5CC
:101E100085B00F46446805680669B0F90800FFF709
:101E2000EBFF03AB019300903B46B2B2294620463C
:101E300000F0B8F9012802D1039805B0F0BD0020E8
:101E4000FBE708B5034600B90123184600F01EFB66
:101E5000002008BD08B500F087FB012801D000F084
:101E600069FC08BD00F1080343604FF0FF32826057
:101E7000C360036100230360704700230361704760
:101E800043684B609A688A609A68516099600861FB
:101E9000036801330360704730B40D68B5F1FF3F4C
:101EA00002D000F1080202E0026904E01A46536819
:101EB0001C68AC42FAD953684B6099608A605160E3
:101EC000086103680133036030BC704703694268EE
:101ED000816891608268416851605A68824206D088
:101EE000002202611A68013A1A6018687047826815
:101EF0005A60F5E7074B9B6A1B6833B1054B9A6A3A
:101F0000D268D2685268DA627047024B4FF0FF32F3
:101F1000DA6270479000002010B50446006B00F0B4
:101F200089FD204600F086FD10BD2DE9F047804672
:101F30009946089D099F0A9C266B02F18042013A4E
:101F400006EB820626F0070600230F2B07D8C85C95
:101F5000E21882F83400CA5C0AB10133F5E70023C5
:101F600084F84330062D00D90625E56265644FF0FC
:101F7000000AC4F848A0201DFFF77FFF04F11800F5
:101F8000FFF77BFF2461C5F10705A5616462C4F812
:101F90004CA084F850A04A464146304600F032FB3F
:101FA000206007B13C60BDE8F087000070B50024F8
:101FB00007E004EB8402930010481844FFF752FF37
:101FC0000134062CF5D90E4C04F1BC063046FFF75F
:101FD00049FF04F1D0052846FFF744FF04F114003F
:101FE000FFF740FF04F1E400FFF73CFF2046FFF756
:101FF00039FFA662C4F8F85070BD00BFC0000020D1
:102000009000002038B5054600F024FB264BD3F89D
:10201000FC200132C3F8FC20D3F8003173B1224B0D
:10202000D3F804318BB9204BD3F80031DA6AEB6A6C
:102030009A420AD81C4BC3F8005106E01A4BC3F869
:102040000051D3F8FC30012B2AD0174CD4F80831BA
:102050000133C4F80831EB6A01229A40D4F80C111C
:102060000A43C4F80C2104F1300003EB83039A0007
:10207000291D1044FFF704FF00F00EFBD4F80431D3
:102080006BB1D4F80031DA6AEB6A9A4207D2074B97
:102090004FF080521A60BFF34F8FBFF36F8F38BD80
:1020A000FFF784FFD1E700BF9000002004ED00E0BF
:1020B00038B517E000F0CEFA0D4CD4F8F030DD68FA
:1020C000281DFFF703FFD4F8FC30013BC4F8FC30B7
:1020D000D4F81031013BC4F8103100F0DDFA284685
:1020E000FFF71AFF024BD3F81031002BE2D138BDB5
:1020F0009000002008B5FFF7DBFF064B1B6B012BA0
:10210000F9D9054B4FF080521A60BFF34F8FBFF3E0
:102110006F8FF0E79000002004ED00E070B50446FA
:102120000E461F4BD3F81451D3F800010430FFF7CB
:10213000CDFE60B91A4BD3F80021D16A012202FA10
:1021400001F1D3F80C2122EA0102C3F80C21B4F109
:10215000FF3F12D02C44124BD3F800315C60A542F3
:1021600014D80F4DA86AD5F800110431FFF794FE7A
:10217000EB6AA34212D9EC6210E0002EEAD00848C4
:10218000D0F800110431FFF77BFE07E0044BD3F8D1
:10219000F800D3F800110431FFF77EFE70BD00BFD8
:1021A000900000202DE9F04385B00746884615468B
:1021B0009946900000F0C4FBF8B10646542000F0A8
:1021C000BFFB0446A8B10663D4B100230393029475
:1021D0000D9B01930C9B00934B462A464146384683
:1021E000FFF7A3FE2046FFF70DFF012005B0BDE875
:1021F000F083304600F01EFCE6E74FF0FF30F5E7D5
:102200004FF0FF30F2E7000000B583B0174B0193A9
:1022100000230093802216491648FFF7C3FF0128C8
:1022200005D0B0F1FF3F17D003B05DF804FB4FF0CD
:10223000500383F31188BFF36F8FBFF34F8F0E4BA3
:102240004FF0FF32DA620122C3F804210022C3F802
:10225000142100F0A1FAE7E74FF0500383F311884F
:10226000BFF36F8FBFF34F8FFEE700BFAC010020BD
:1022700038390008F520000890000020034AD2F801
:1022800018310133C2F81831704700BF90000020A8
:102290002DE9F041404BD3F81831002B6CD13E4B67
:1022A000D3F814510135C3F81451CDB99B6A1B689A
:1022B00043B14FF0500383F31188BFF36F8FBFF327
:1022C0004F8FFEE7344B9A6AD3F8F8109962C3F83F
:1022D000F820D3F820210132C3F82021FFF70AFEAD
:1022E0002D4BDB6AAB423DD900242B4AD2F800319A
:1022F000DB6A03EB830399000A44136B012B42D979
:10230000012440E00124244B9B6A1B6863B3224BE9
:102310009B6ADB68DE6873689D422AD306F1040875
:102320004046FFF7D3FDB36A1BB106F11800FFF773
:10233000CDFDF36A01229A40174FD7F80C110A43DA
:10234000C7F80C2107F1300003EB83039A004146E4
:102350001044FFF795FDF26AD7F80031DB6A9A4224
:10236000D0D2D0E70024CEE70B4B4FF0FF32DA6239
:10237000BBE7094AD362B8E7074AD2F824310133F0
:10238000C2F824310024044BD3F8283103B10124CE
:102390002046BDE8F08100BF90000020394BD3F803
:1023A000183143B94FF0500383F31188BFF36F8F97
:1023B000BFF34F8FFEE770B500F04CF9314BD3F807
:1023C0001821013AC3F81821D3F81831002B54D141
:1023D0002C4BD3F8FC3023B9002400F05DF92046E3
:1023E00070BD0024274B5B692BB3264D2B6ADC683C
:1023F00004F11800FFF76AFD261D3046FFF766FD61
:10240000E36A01229A40D5F80C110A43C5F80C2161
:1024100005F1300003EB83039A0031461044FFF7C7
:102420002FFDE26AD5F80031DB6A9A42DAD3012245
:10243000C5F82821D6E70CB1FFF75CFD114BD3F8A6
:10244000244164B1FFF724FF18B10E4B0122C3F8F9
:102450002821013CF6D10B4B0022C3F82421094B63
:10246000D3F828315BB1084B4FF080521A60BFF3AC
:102470004F8FBFF36F8F0124AFE70024ADE7002437
:10248000ABE700BF9000002004ED00E010B5B0B154
:1024900004460F4BD3F8183143B14FF0500383F388
:1024A0001188BFF36F8FBFF34F8FFEE7FFF7E6FE94
:1024B00000212046FFF732FEFFF770FF38B9054BC9
:1024C0004FF080521A60BFF34F8FBFF36F8F10BD74
:1024D0009000002004ED00E0224BD3F8183123B126
:1024E000204B0122C3F8282170471E4A0023C2F85E
:1024F0002831D2F80C31B3FA83F3DBB2C3F11F03F6
:1025000003EB830081000A44126B42B94FF0500381
:1025100083F31188BFF36F8FBFF34F8FFEE710B4C3
:10252000104A9900CC18A0001044446B64684463BE
:102530003032194488000830024494420BD00949D3
:1025400003EB83039A000A44536BDB68C1F8003144
:102550005DF8044B704761680248142202FB0302D5
:102560005163ECE790000020064BD3F804313BB1F7
:10257000044BD3F818310BB100207047022070478C
:10258000012070479000002082B0002301930D4B82
:102590001B68B3F1FF3F08D04FF0500383F311885D
:1025A000BFF36F8FBFF34F8FFEE74FF0500383F3FE
:1025B0001188BFF36F8FBFF34F8F019B002BFCD0AF
:1025C00002B070470800002008480068006880F3E7
:1025D00008884FF0000080F3148862B661B6BFF33C
:1025E0004F8FBFF36F8F00DF00BF000008ED00E0EA
:1025F000DFF80C00016841F47001016070470000D1
:1026000088ED00E04FF0807340F8043C21F00101B8
:1026100040F8081C054B40F80C3C40F8202C6FF0AB
:10262000020340F8243C4438704700BF8925000865
:10263000074B19680868B0E8F04F80F30988BFF3CA
:102640006F8F4FF0000080F311887047AFF3008068
:10265000900100204FF0500383F31188BFF36F8F78
:10266000BFF34F8F0A4A136801331360012B00D068
:102670007047084B1B6813F0FF0FF9D04FF0500361
:1026800083F31188BFF36F8FBFF34F8FFEE700BF57
:102690000800002004ED00E0094B1B6843B94FF02F
:1026A000500383F31188BFF36F8FBFF34F8FFEE7A3
:1026B000013B034A13600BB983F31188704700BFD5
:1026C00008000020000000000000000000000000E2
:1026D000EFF30980BFF36F8F154B1A681EF0100FD0
:1026E00008BF20ED108A20E9F04F10602DE90900A5
:1026F0004FF0500080F31188BFF34F8FBFF36F8FFF
:10270000FFF7EAFE4FF0000080F3118809BC19685A
:102710000868B0E8F04F1EF0100F08BFB0EC108A48
:1027200080F30988BFF36F8F704700BFAFF300805D
:102730009001002008B54FF0500383F31188BFF3D8
:102740006F8FBFF34F8FFFF7A3FD18B1034B4FF00F
:1027500080521A60002383F3118808BD04ED00E065
:10276000084A0023136008490B60084B1B6808499E
:10277000A1FB03139B09013B06490B600723136070
:10278000704700BF10E000E018E000E00C000020FF
:10279000D34D621014E000E0394B1A68394B9A426D
:1027A0000DD0374B1A68384B9A4211D14FF0500375
:1027B00083F31188BFF36F8FBFF34F8FFEE74FF0A6
:1027C000500383F31188BFF36F8FBFF34F8FFEE782
:1027D00010B582B02D4B1A78D2B20192FF221A7036
:1027E0001B78DBB28DF803309DF8033003F0500303
:1027F000274A13700723536009E0254A5368013BB9
:1028000053609DF803305B00DBB28DF803309DF818
:10281000033013F0800FF0D11D4B5B68032B08D001
:102820004FF0500383F31188BFF36F8FBFF34F8FC7
:10283000FEE71B0203F4E063154A5360019BDBB221
:10284000124A1370134B1A6842F470021A601A6825
:1028500042F070421A60FFF783FF00240E4B1C60A9
:10286000FFF7C6FE0D4A136843F040431360FFF7BD
:10287000ABFEFFF731FEFFF787FE204602B010BD2A
:1028800000ED00E071C20F4170C20F4100E400E0B2
:10289000BC01002020ED00E00800002034EF00E043
:1028A000104A12F0070F1AD0D11D21F00701C1F50F
:1028B000705313440A460C490A60002048601344D0
:1028C000083B23F007038B6058601860981A50602B
:1028D0001360C86008614FF000434B6170474FF4CC
:1028E0007053E8E7DC010020C401002010B4134B52
:1028F0001A6882421BD359685C18844203D140682D
:1029000001445960184641684418A24213D10B4C47
:10291000A468A2420DD05268114441601A6812683E
:102920000260984200D018605DF8044B704713466F
:10293000DEE70460F5E70260F3E700BFC4010020B2
:1029400070B50446FFF79AFC394B9B68BBB1384B16
:102950005B691C4262D1ACB1083414F0070F11D08E
:1029600024F00704083404F007035BB14FF0500370
:1029700083F31188BFF36F8FBFF34F8FFEE7FFF72D
:102980008FFFE4E7002C4BD0294B1B69A34249D3AE
:10299000274B1D6801E02B4615466A68A24202D209
:1029A0002A68002AF7D1224A9268AA423CD01E68BF
:1029B00008362A681A606B681B1B102B10D928195F
:1029C00010F0070F08D04FF0500383F31188BFF3C6
:1029D0006F8FBFF34F8FFEE743606C60FFF786FF9A
:1029E0006968134A13695B1A1361D268934201D272
:1029F0000F4AD3600E4B5B690B436B6000232B6067
:102A0000FFF7CCFC16F0070F10D04FF0500383F304
:102A10001188BFF36F8FBFF34F8FFEE70026EFE7FC
:102A20000026EDE70026EBE70026E9E7304670BD1B
:102A3000C401002080B338B50446A0F1080550F861
:102A4000042C164949690A4208D14FF0500383F318
:102A50001188BFF36F8FBFF34F8FFEE750F8080C5C
:102A600040B14FF0500383F31188BFF36F8FBFF372
:102A70004F8FFEE722EA010244F8042CFFF7FEFB29
:102A800054F8041C054A13690B4413612846FFF7E8
:102A90002DFFFFF783FC38BD704700BFC401002045
:102AA00030B58BB0002405940694079408940994DB
:102AB0000194224B1A6B42F004021A631A6B02F063
:102AC00004020192019A02941A6B42F080021A6386
:102AD0001A6B02F080020292029A03941A6B42F07F
:102AE00001021A631A6B02F001020392039A049422
:102AF0001A6B42F002021A631B6B03F00203049389
:102B0000049B0F4D224620212846FEF7E1F94FF4A1
:102B1000005305930B4B0693079405A90A48FEF74B
:102B200005F920230593012306930794089405A92A
:102B30002846FEF7FBF80BB030BD00BF003802405E
:102B400000000240000021100008024070B584B06F
:102B500000250095019502950395104C104B2360BC
:102B60004FF480336360A5602561257684F820509A
:102B7000E5620C4BA362E5600126E66184F8305003
:102B800066612046FDF7EEFD0096019602956946C6
:102B90002046FDF797FF04B070BD00BFF43D002054
:102BA000002001400100000F30B593B000241094C4
:102BB000119409940A940B940C940D940E940F9410
:102BC0002022214601A800F090FA1A4D1A4B2B60E2
:102BD00053236B60AC6044F62063EB602C616C6146
:102BE000AC612846FEF768FD1094119410A92846A0
:102BF000FEF74CFE602309930A940B940C940D94F9
:102C00000E940F94224609A92846FEF7A1FD0194CF
:102C100002940394049405944FF40053069308948B
:102C200001A92846FEF755FE284600F043F913B0E7
:102C300030BD00BF3C3E00200000014008B5084800
:102C4000084B03604FF4E133436000238360C360AB
:102C500003610C2242618361C361FFF72EF808BD56
:102C60007C3E00200044004010B588B00023009353
:102C7000019302930393049305930693079310E043
:102C80001249684600F03AFA6846FDF729FC4FF40D
:102C90007A7382B269460E48FFF73EF86420FFF768
:102CA000D0F80C4C2046FDF789FDE8212046FDF7C1
:102CB00001FE2046FDF759FE0246A0F5167140F2CE
:102CC0006B739942DCD8044B5863D9E7403900084C
:102CD0007C3E0020F43D00200000014030B595B05E
:102CE0003022002108A800F000FA00240394049484
:102CF00005940694079401941B4B1A6C42F0805281
:102D00001A641B6C03F080530193019B0294174AD1
:102D1000136823F4404343F400431360136803F43F
:102D200040430293029B0225089501230B93102335
:102D30000C930E950F9410934FF4A87311930423E2
:102D400012930723139308A8FEF7C8F80F230393E1
:102D5000049505944FF4805306930794294603A8DD
:102D6000FEF7F4FA15B030BD0038024000700040A4
:102D700000B587B0FDF730FCFFF7B0FFFFF790FE1E
:102D8000FFF7E4FEFFF710FFFFF758FF0B4C20465C
:102D9000FEF732FC00212046FEF75AFD01AC084D3B
:102DA0000FCD0FC42B682360002101A8FFF72FF877
:102DB000044B1860FFF726F8FEE700BF3C3E0020FA
:102DC0000C390008F03D002000B583B000220092CD
:102DD0000D4B596C41F480415964596C01F48041A8
:102DE000009100990192196C41F0805119641B6C9B
:102DF00003F080530193019B0F216FF00100FDF759
:102E00003DFF03B05DF804FB0038024010B588B008
:102E1000002303930493059306930793026803F139
:102E2000804303F590339A4201D008B010BD0024CE
:102E3000019403F58C335A6C42F480725A645A6CD4
:102E400002F480720192019A02941A6B42F001021C
:102E50001A631B6B03F001030293029B022303938B
:102E60000323049303A90648FDF760FF22460521CA
:102E70001220FDF703FF1220FDF734FFD5E700BF56
:102E8000000002400268094B9A4200D0704782B0AD
:102E900000230193064B5A6C42F001025A645B6CAA
:102EA00003F001030193019B02B070470000014051
:102EB0000038024000B587B00023019302930393CA
:102EC0000493059302680F4B9A4202D007B05DF855
:102ED00004FB002300930C4B1A6B42F001021A63AF
:102EE0001B6B03F001030093009B4FF4807301936D
:102EF000022302930123059301A90448FDF716FF5D
:102F0000E4E700BF0000014000380240000002403A
:102F100000B589B0002303930493059306930793A8
:102F20000268144B9A4202D009B05DF804FB0021FC
:102F3000019103F5FA331A6C42F400321A641A6CE8
:102F400002F400320192019A02911A6B42F00102DE
:102F50001A631B6B03F001030293029B0C23039380
:102F6000022304930723079303A90348FDF7DEFE1A
:102F7000DAE700BF00440040000002407047FEE76F
:102F8000FEE7FEE7FEE7704708B5FDF73FFBFEF7FB
:102F900061FF08BD08B50248FDF7EDFC08BD00BFA4
:102FA000F43D002008B503460B4A126842B10A4AB4
:102FB000106803446A46934206D8074A136008BD66
:102FC000054A06491160F2E700F05AF80C23036045
:102FD0004FF0FF30F3E700BFDC3D0020C03E002093
:102FE0000F49D1F8883043F47003C1F888300D4B95
:102FF0001A6842F001021A60002098601A6822F0F4
:10300000847222F480321A60074A5A601A6822F4E5
:1030100080221A60D8604FF000638B60704700BF59
:1030200000ED00E00038024010300024DFF834D01A
:10303000002103E00C4B5B58435004310B480C4B10
:1030400042189A42F6D30B4A02E0002342F8043BAE
:10305000094B9A42F9D3FFF7C3FF00F017F8FFF7C7
:1030600087FE7047008001209C3900080000002086
:103070007400002074000020C03E0020FEE7000025
:10308000014B1868704700BF1000002070B50D4E4E
:103090000D4CA41BA4100025A54209D10B4E0C4CCD
:1030A00000F028FCA41BA4100025A54205D170BD8A
:1030B00056F8253098470135EEE756F82530984701
:1030C0000135F2E794390008943900089439000872
:1030D0009839000810B5431E0A44914200D110BD32
:1030E00011F8014B03F8014FF7E7024403469342FE
:1030F00000D1704703F8011BF9E700000EB400B5DA
:103100009CB01DAB029006906FF0004109480791FA
:103110000491094953F8042B05910068019302A911
:1031200000F066F8029B00221A701CB05DF804EBF8
:1031300003B07047100000200802FFFF2DE9F047A0
:103140008E689E4282460C469046994637D88A89B8
:1031500012F4906F31D0256809696F1A65690223EE
:1031600005EB450595FBF3F509F101033B449D4251
:1031700038BF1D46530530D5294600F021FB0646D1
:1031800050B90C23CAF80030A38943F04003A3814F
:103190004FF0FF30BDE8F0873A462169FFF79AFF0C
:1031A000A38923F4906343F08003A38126616561C2
:1031B0003E44ED1B2660A5604E464E4500D94E4666
:1031C00032464146206800F093FAA3689B1BA36037
:1031D00023681E4426600020DCE72A4600F04AFBF4
:1031E00006460028E2D12169504600F09BFAC8E764
:1031F0002DE9F04F1D468B891F069DB080460C4679
:1032000016460FD50B696BB9402100F0D9FA206042
:10321000206128B90C23C8F800304FF0FF30C8E017
:10322000402363610023099320238DF82930302344
:103230008DF82A3003954FF0010B37463D4615F8BF
:10324000013B0BB1252B3ED1B7EB060A0BD0534601
:10325000324621464046FFF771FF013000F0A4805E
:10326000099B534409933B78002B00F09D80002379
:103270004FF0FF32CDE90523049307938DF85330C7
:103280001A932F46052217F8011B5048FDF730F915
:10329000049BD0B9D90644BF20228DF853201A07C9
:1032A00044BF2B228DF853202A782A2A15D0079A5A
:1032B0002F4600200A25394611F8013B303B092BE7
:1032C0004DD9B8B10FE02F46B8E7404A801A0BFA43
:1032D00000F0184304903D46D3E7039A111D12688D
:1032E0000391002A01DB079204E0524243F00203FB
:1032F000079204933B782E2B0CD17B782A2B33D169
:10330000039B1A1D1B680392002BB8BF4FF0FF33BD
:10331000023705932E4D397803222846FDF7E8F849
:1033200038B14023401B03FA00F0049B03430137EC
:103330000493397827488DF8281006227E1CFDF763
:10334000D7F8002838D0244B13BB039B073323F056
:10335000070308330393099B4B4409936DE705FB6F
:10336000023201200F46A6E70023013705931946D4
:103370000A25384610F8012B303A092A03D9002BC8
:10338000C8D00591C6E705FB012101230746F0E7F8
:1033900003AB00932246114B04A94046AFF30080D3
:1033A000B0F1FF3F8146D6D1A3895B063FF535AF2B
:1033B00009981DB0BDE8F08F03AB00932246074B80
:1033C00004A9404600F082F8EAE700BF5839000837
:1033D0005E39000862390008000000003D31000835
:1033E0002DE9F04791461F468A680B69DDF8208079
:1033F0009342B8BF1346C9F8003091F843200646FF
:103400000C4612B10133C9F800302368990642BF57
:10341000D9F800300233C9F80030256815F00605E8
:1034200007D104F1190AE368D9F800209B1AAB42CE
:1034300028DC94F843302268003318BF0123920639
:103440002DD404F1430239463046C047013020D024
:103450002368E568D9F8002003F00603042B08BFB1
:10346000AD1AA36822690CBF25EAE57500259342D1
:10347000C4BF9B1AED184FF000091A344D451AD1FC
:10348000002008E00123524639463046C04701304B
:1034900003D14FF0FF30BDE8F0870135C3E7E118F5
:1034A0005A1C302081F84300224494F8451082F8D9
:1034B00043100233C5E70123224639463046C04750
:1034C0000130E6D009F10109D8E700002DE9F04309
:1034D00001F1430C0C46097E85B06E29174606465D
:1034E00098460C9A00F0B38022D8632936D00AD8C7
:1034F000002900F0B980582900F0838004F14205CA
:1035000084F8421032E0642901D06929F6D120689C
:103510001368050603F104012AD51B681160002B0E
:1035200003DA2D225B4284F843206F480A2239E0F7
:10353000732900F09D8008D86F2920D07029DDD133
:10354000236843F02003236003E0752917D078290E
:10355000D4D1782384F84530644855E01368191DA8
:103560001B68116004F1420584F8423001238CE0AD
:103570001B68116010F0400F18BF1BB2CFE7136833
:103580002568181D1060280601D51B6802E0680632
:10359000FBD51B8854486F2914BF0A22082200213A
:1035A00084F843106568A560002DC0F295802168FD
:1035B00021F004012160002B3DD1002D40F08E80D0
:1035C0006546082A0BD12368DB0708D523696268A2
:1035D0009A42DEBF302305F8013C05F1FF35ACEB24
:1035E00005032361CDF800803B4603AA21463046FF
:1035F000FFF7F6FE01304DD14FF0FF3005B0BDE8CA
:10360000F083394884F84510136821681D1D1B6834
:1036100015600A060BD5CA0744BF41F0200121609E
:103620001BB9226822F0200222601022B7E74D0663
:1036300048BF9BB2EFE76546B3FBF2F102FB1133E3
:10364000C35C05F8013D0B460029F5D1B9E71368C5
:1036500025686169181D106028061B6801D519606E
:1036600002E06A06FBD51980002323616546B9E7AD
:103670001368191D11601D68626800212846FCF757
:1036800037FF08B1401B606063682361002384F842
:103690004330A7E723692A4639463046C047013000
:1036A000AAD023689B0713D4E068039B9842B8BF55
:1036B0001846A3E701234A4639463046C047013041
:1036C0009AD00135E368039A9B1AAB42F2DCEBE730
:1036D000002504F11909F5E7002BACD1037884F833
:1036E000423004F142056CE7693900087A39000874
:1036F000884210B501EB020307D8421E99420AD056
:1037000011F8014B02F8014FF8E78342F5D981180F
:10371000D21AD34200D110BD13F8014D01F8014D6A
:10372000F7E7000038B50546002945D051F8043CBC
:103730000C1F002BB8BFE41800F0D2F81F4A136822
:10374000104633B9636014602846BDE8384000F085
:10375000C8B8A3420CD921686218934204BF1A6802
:103760005B68636004BF521822600460ECE7134694
:103770005A680AB1A242FAD919685818A0420BD166
:1037800020680144581882421960DDD110685268DF
:103790005A6001441960D7E702D90C232B60D3E7A4
:1037A000206821188A4204BF11685268626004BF11
:1037B000091821605C60C7E738BD00BFE43D002008
:1037C00070B5CD1C25F0030508350C2D38BF0C2530
:1037D000002D064601DBA94203D90C2333600020EB
:1037E00070BD00F07DF8214A1468214691B9204C43
:1037F00023681BB9304600F063F820602946304644
:1038000000F05EF8431C24D10C233360304600F0F6
:1038100068F8E4E70B685B1B18D40B2B0FD90B601F
:10382000CD50CC18304600F05CF804F10B00231D9D
:1038300020F00700C31AD3D05A42E250D0E78C429E
:103840004B6816BF636013600C46EBE70C46496893
:10385000CCE7C41C24F00304A04205D0211A304652
:1038600000F02EF80130CFD02560DBE7E43D0020EA
:10387000E83D0020F8B5074614460E4621B911462A
:10388000BDE8F840FFF79CBF22B9FFF74BFF254684
:103890002846F8BD00F026F8A0420FD2214638464F
:1038A000FFF78EFF05460028F2D031462246FFF78B
:1038B00011FC31463846FFF735FFE9E73546E7E7C3
:1038C00038B5064C0023054608462360FFF76AFB1F
:1038D000431C02D1236803B12B6038BDBC3E0020DD
:1038E0007047704751F8043C181F002BBCBF0B58A1
:1038F000C0187047F8B500BFF8BC08BC9E467047BA
:0C390000F8B500BFF8BC08BC9E4670473C
:10390C004C390008692C0008000000000000000081
:10391C008000000000000000000000000102030411
:10392C0006070809000000000102030449444C4545
:10393C000000000076616C75653A2025640A000071
:10394C0064656661756C745461736B00232D302B48
:10395C002000686C4C006566674546470030313284
:10396C0033343536373839414243444546003031DB
:10397C00323334353637383961626364656600003A
:08398C0084C8FF7F0100000068
:04399400C501000861
:04399800A101000881
:10399C000100000010000000AAAAAAAA0024F4004A
:1039AC0014000020000000000000000000000000D7
:1039BC0000000000000000000000000000000000FB
:1039CC0000000000000000000000000000000000EB
:1039DC0000000000000000000000000000000000DB
:1039EC0000000000000000000000000000000000CB
:1039FC0000000000000000000000000000000000BB
:043A0C0000000000B6
:040000050800302D92
:00000001FF
